:020000040800F2
:1000000010E200208579010835760108377601086D
:10001000657601086776010869760108000000002E
:100020000000000000000000000000006B760108E6
:100030006D760108000000006F7601081B6400085F
:10004000257A0108297A01082D7A0108317A0108F8
:10005000357A0108397A01083D7A0108417A0108A8
:10006000457A0108497A01084D7A0108517A010858
:10007000557A0108597A01085D7A0108617A010808
:10008000657A0108697A01086D7A0108717A0108B8
:10009000757A0108797A01087D7A0108817A010868
:1000A000857A0108897A01088D7A0108917A010818
:1000B0008D640008997A01089D7A0108A17A0108E7
:1000C000A57A0108A97A0108AD7A0108B17A010878
:1000D000B57A0108CF8F0008BD7A0108C17A0108FE
:1000E000C57A0108C97A0108CD7A0108D17A0108D8
:1000F000D57A0108D97A0108DD7A0108E17A010888
:10010000E57A0108F5700108ED7A0108F17A010835
:10011000F57A0108F97A0108FD7A0108017B0108E6
:10012000057B0108097B01080D7B0108FD700108B2
:10013000F0B50568B0F90C30B0F90E60B0F91040B8
:10014000B0F912204769011DC7B9B5F90270BA426A
:10015000A4BFB5F900C064454ADBB5F906C0B44593
:10016000A4BFB5F904C09C4542DBBE4203DA4E8011
:100170006A88521E36E00127476101E0012F0BD14A
:10018000B5F90070BB4204DA0B802B885B1E8B80B4
:100190000CE00227476101E0022F1BD1B5F9047082
:1001A000A74214DA8C80AB885B1C0B80B5F9023057
:1001B0009E42B8BF1E464E80B5F906309342B4BF8A
:1001C000CB80CA804169491C41610120F0BD0326F2
:1001D000466101E0032F0BD1B5F90650954205DACF
:1001E0006D1C4D80CA800B808C80EBE7042141613F
:1001F0000020F0BD70B5099C6060A160E2602361E1
:100200001018069D6561421E0898B0F902505B18EF
:100210005B1E691A012921600ADB2669761A012E04
:1002200026616BDBA560059E656906FB0151616176
:10023000B0F90610591A0129216004DB2369591A03
:10024000012921615ADBB0F90410531A2360E268D6
:100250006568B0F90000079E012BA8BFD21A85423D
:1002600033463EDA431BB018C21A049E5819012EB9
:100270000CD0022E14D0042E1CD0082E24D0102E08
:1002800025D0182E18BF202E25D02AE0606900EB5B
:10029000D300606123F00700451903F0070320E055
:1002A000606900EB9300606123F00300451903F0DF
:1002B000030316E0606900EB5300606123F0010066
:1002C000451903F001030CE065695B1906E06569F7
:1002D00005EB430302E0656905EB830363610546B3
:1002E00000236560236060681D185519A94202DA71
:1002F000081AC01A421C012AE26001DA012070BD0E
:10030000002070BD70B514460346B4F9042060693E
:100310009342A4BFB4F90650A9420FDB9B1A02888E
:100320005E1CB242A1BF4A1B4188551CA94205DB95
:10033000194601F04EFBE16811B120B9002070BDF3
:10034000000EFF28FAD2012070BD2DE9F84300F01D
:1003500053F8A4BFB7F90810A142164610DBB7F94D
:1003600006108845A4BFB7F90A20424508DB251AC4
:10037000A8EB010978694A46294601F02AFB20B911
:10038000366806B13FE0002001E000F029F8BDE842
:10039000F2832DE9F84300F02FF8A4BFB7F9081055
:1003A000A142164613DBB7F906108845A4BFB7F97A
:1003B0000A2042450BDB251A7869A8EB010930B108
:1003C0004A46294601F005FB000EFF2804D1366895
:1003D00006B118E0002001E000F002F8BDE8F28369
:1003E000B7F90800B7F90410401A401C09FB005087
:1003F00007EB8000006A70471F460446B7F9040007
:1004000088468442704742462146304601B0F36830
:100410005B69BDE8F04318472DE9F24F98B00446F8
:100420009346994611A800F05FFAA06801F0A9FD73
:1004300006904FF000080699B0F90800B1F90410D1
:10044000279D401A401C0A9006984069099006981A
:10045000001D1190269F1898D4F800A0249C119993
:10046000ADF852B03818ADF850004844401EADF811
:100470005400229E06EB0B00401EADF8560014A857
:1004800001F01CFE00282FD10595049702944B46DD
:10049000259803905A462398019000965046DAF822
:1004A0000C4018996468A04706A801F075FD19B0C2
:1004B000BDE8F08F0BA80590334612A800F04BF969
:1004C00090B90B980E9B0D9A0C9904900595029487
:1004D00010980390239801900F9800905046DAF8F6
:1004E0000CC0DCF804C0E04711A8FFF721FE00288B
:1004F000E0D1119907A801F0FCF814A907A801F0B0
:10050000DDFD0028D0D014A907A801F0F3FD0BA849
:100510000590334607A800F01EF90028C4D1DAF888
:1005200010008068804783460698C068BDF91E9019
:10053000002873D001E009F10109BDF92200484506
:10054000B2DBBDF91C6003E0434600F0F1F8761C15
:10055000BDF92000B042EEDB00F0F2F800F006F941
:100560008BEA0708A8B30698B0F906200A99A9EB08
:10057000020202FB0161B0F9042000F043FB00F12C
:10058000200100F0CFF813D010F0030007D00228AC
:1005900003D008D3032806D0D9E7002FD7D055F8C9
:1005A00027000860D3E755F827008BEA0000F8E73A
:1005B00010F0030005D0022805D007D3032805D08A
:1005C000C5E70F60C3E7002FC1D0FAE7C1F800808C
:1005D000BDE700F0A7F812D010F0030007D0022802
:1005E00003D007D3032805D0B1E7002FAFD055F8CB
:1005F0002730AAE755F827008BEA0003A5E710F09B
:10060000030007D0022803D09ED303289CD09EE786
:10061000002F9CD03B4698E709F10109BDF9220063
:1006200048458DDBBDF91C6004E08BEA070300F050
:100630007FF8761CBDF92000B042EDDB00F080F8B9
:1006400000F094F8DFF8901A0B68020EFF2A46D0EB
:100650000699B1F906E0DDF828C01B7CA9EB0E0E67
:100660000EFB0C6CB1F904E0ACEB0E0C01EB8C0151
:100670002031002D11D013F0030306D0022B03D03C
:1006800006D3032B04D019E0C7B155F8278013E037
:1006900055F827308BEA03080EE013F0030306D069
:1006A000022B03D006D3032B04D007E037B10F6031
:1006B000B84603E08BEA0708C1F80080002AB8D0EA
:1006C000C2F1FF02D2B2414601F046FD069ADFF8C0
:1006D0000C1A1268926900F0F4FE074620E0002D23
:1006E000187C12D010F0030007D0022803D007D3E3
:1006F000032805D09DE7002F9BD055F8273096E7BB
:1007000055F827008BEA000391E710F0030007D0AB
:10071000022803D089D3032887D08AE7002F88D006
:100720003B4684E7DFF8B0090068007C002D704785
:10073000DAF80C70D7F818C04A4631465046604780
:100740000D98109AA9EB0000009021460C98331ADE
:10075000239801F0F9B80490039701944A4625982C
:100760000290594623980090189843E5074606984A
:10077000B0F90600A9EB00020698B0F90400311A9E
:10078000099801F026B92DE9F04F89B007460E46C9
:1007900014461D4600F0A7F8B86801F0F2FB00F01F
:1007A0009AF800F1010900F05CF9ADF81860ADF8B5
:1007B0001A40ADF81C50ADF81E4001F07FFC90B916
:1007C0002246FC68A4682B4631463846A04757E1CC
:1007D000FD68BDF91430BDF91220BDF91010D5F82F
:1007E00008C03846E04703A8FFF7A2FC0028EFD175
:1007F00000F07DFF06A901A801F060FC0028E6D00A
:1008000006A901A801F076FCDFF8CC582868C06B77
:10081000D0F800800098C06818B3BDF9046007E004
:100820002868C06BD7F80CC0036800F04EF8761C3F
:10083000BDF90800B042CADB00F0F7F90028EFD09C
:100840000098BDF90610B0F90620891AB0F9042005
:1008500001FB096100F0D6F92968C96B09680162DA
:10086000E5E70099DFF8745800F029F84968404638
:100870008847BDF90460824605E04346D7F80CC0BE
:1008800000F023F8761CBDF90800B0429FDB00F0B1
:10089000CCF9010EFF29F0D000F0C2F8E31A03FBF7
:1008A000096300F0C3F8C2F82080EBD000F0C4F870
:1008B000009900F004F8096888470346DEE70968F4
:1008C000896955F8211009697047DCF818C022467B
:1008D00031463846604700900099B0F90800B1F9F8
:1008E0000410401A704703A8182101F0A5BD2DE996
:1008F000F04F89B007460C4615461E46FFF7F3FF3A
:10090000B86801F03EFBFFF7E6FF00F1010800F0D8
:10091000A8F8ADF81840ADF81A50ADF81C40ADF885
:100920001E6001F0CBFB90B92146FC68E4683346B9
:100930002A463846A047A3E0FD68BDF91630BDF948
:100940001220BDF91010D5F80CC03846E04703A8B6
:10095000FFF7EEFB0028EFD100F0C9FE06A901A8C1
:1009600001F0ACFB0028E6D006A901A801F0C2FB0B
:1009700000F0ACFDC06B05680098C068E8B1BDF937
:10098000066009E0D7F80CC0DCF818C02B463246E8
:1009900021463846E047761CBDF90A00B042CADB62
:1009A00000F056F800F049F90028EBD000F062F8AA
:1009B000711A00F025F90562EDE70099DFF81C9740
:1009C00000F040F8496828468847BDF9066082462D
:1009D00009E02B46D7F80CC0DCF818C03246214697
:1009E0003846E047761CBDF90A00B042A3DB00F0B0
:1009F0002FF800F022F9010EFF29EAD000F010F8DC
:100A0000F31A03FB084300F011F81562EAD000F076
:100A100013F8009900F016F8096888470346D9E7EB
:100A2000009AB2F90630B2F904C07047A3EB0C0388
:100A300002EB830200297047C1F1FF02D2B2514696
:100A400001F08ABB0968896959F821100969704762
:100A50000098B0F90600321A0098B0F90400211A83
:100A600070470098D0F814B0001D039006A83F68A6
:100A7000039970470098B0F90610B0F90420704748
:100A800000F091F909B0BDE8F08F2DE9F04F8BB07F
:100A900006460F461546994604A8FFF725FFB0689D
:100AA00001F06FFA01900199FFF717FF00F1010AB9
:100AB0000198D0F814B0001D049007A83668ADF86E
:100AC0001C70ADF81E50ADF82090149C0499ADF840
:100AD000224001F0F3FAC0B900944B46F468D4F810
:100AE00010A02A4639463046D04700F003FB04E305
:100AF000BDF91A00BDF91830BDF91620BDF9141062
:100B000000903046F7683F69B84704A8FFF710FB2C
:100B10000028EDD1049902A800F0EBFD07A902A876
:100B200001F0CCFA0028E0D007A902A801F0E2FA0F
:100B3000DFF8A485D8F80000C06B07680198C0688A
:100B400038B3BDF90A4000E0641CBDF90E00A042B4
:100B5000CBDBBDF9085008E0D8F80000C06BD6F830
:100B60000CC0036800F052F86D1CBDF90C00A842DF
:100B7000EADB00F051F800F060F80028ECD00198B2
:100B8000FFF779FF611A01FB0A5100F03BF8076299
:100B9000EAE7019900F0AEF8BDF90A40814600E0AD
:100BA000641CBDF90E00A0429FDBBDF9085005E0B2
:100BB0003B46D6F80CC000F029F86D1CBDF90C00BE
:100BC000A842EDDB00F028F800F037F8010EFF290D
:100BD000EED0019AB2F90630B2F904C0E31A03FB71
:100BE0000A53FFF723FF1762E7D0C1F1FF02D2B229
:100BF000494601F0B1FA019900F087F80346D8E7B9
:100C000001FB0841891A00EB81007047DCF818C02D
:100C100022462946304660470198B0F90600221A5C
:100C20000198B0F90400291A70470098B0F906003D
:100C3000221A0098B0F90400311A584600F0C9BED3
:100C4000F8B506460C46B068154601F09AF900F072
:100C5000ADF818B100F0C4F8046A06E0F3685B6907
:100C60002A46214630469847044600F09CF8204624
:100C7000F2BD2DE9F041064682B0B0680C4615463B
:100C80001F4601F07EF900900099B0F90800B1F913
:100C900004103668009A401A00F1010829462046DF
:100CA000FFF730FB00281AD0FFF7E4FE691AFFF7C0
:100CB000A7FF07620098C068C0B9009900F01AF851
:100CC000074600F081F8010E10D0C1F1FF02D2B248
:100CD000394601F041FA00F017F8034600E03B46C0
:100CE0002146F468A4692A463046A04700F05BF824
:100CF000BDE8F381DFF8E4830968896958F82110B9
:100D0000096949683846084700990968896958F8A7
:100D100021100969096808472DE9F047064682B0A5
:100D2000B0680C46154601F02CF900F03FF8002899
:100D30002FD000F055F800F1200730698068804717
:100D40003968484038600098C06840BB00F03CF803
:100D500081465FEA196A22D00099DFF8808309682A
:100D6000896958F821100969386849688847CAF1C3
:100D7000FF020102D2B2090A484601F0EDF9FFF77D
:100D8000C3FF2146F468A46903462A463046A047BB
:100D900005E0F368DB692A4621463046984700F0B3
:100DA00002F8BDE8F38700A801F0F6B800900099BA
:100DB000B0F90800B1F904103668009A401A471CCF
:100DC00029462046FFF79EBA0098B0F906002A1A75
:100DD0000098B0F90400211A0098406900F0F9BDAC
:100DE0000098B0F90610B0F90420691A01FB074118
:100DF000891A00EB8100704700207047006810B12D
:100E0000C3681B6A1847704702681268026012B113
:100E1000D268526A104700207047006810B1C2685B
:100E2000926A10477047006810B1C268126B104791
:100E30007047F0B50D4687B0E96809B900202AE08F
:100E400004680CB9012026E095F930202868012AB1
:100E500002D1AF6A064606E06A682F6A161DEA6983
:100E600000EB8200001F68603046AA6901F0E7FAD3
:100E70000020059004900396394668690290A8699D
:100E80000190012000902046E468EB68EA6A6468FB
:100E9000A0470020E86007B0F0BDF8B5069F0D46FA
:100EA000796A044616468D42184601BF396A97F999
:100EB000302051188C421CBF3946FFF7BAFF7868C2
:100EC000066097F9301000EB81007860F86808B987
:100ED000BC62FD62401CF8603C627D62F1BD2DE9A0
:100EE000F04105460C46686900888000343001F006
:100EF0003BF85FEA000845D001F043F80646286851
:100F0000806901F0E2FB00283CD0C268926A0821A7
:100F1000904703280BDB052808DB092804DB112890
:100F2000B4BF1020202002E0082000E00420371D7C
:100F300009287861B8BF012003DB1128B4BF022063
:100F40000420F86068690088F968B861484338612E
:100F500001F037F83969C7F804808842C8BF0846ED
:100F6000386106F1340030600020B86086F8304007
:100F7000012C306803D0B96900EB8100001F386094
:100F8000304600E00020BDE8F08113B50068FFF7AF
:100F900050FF0198846800F0ADF8204601F05AF83F
:100FA00013BD38B504460D46A069DFF81418415644
:100FB00002290CDB00216980298001F029FC401EF8
:100FC000A880A06901F026FC401EE88031BD2946BA
:100FD0002046E268126BBDE8384010471CB50C464D
:100FE00000A9FFF7DEFF00A9204601F083F813BD3A
:100FF0002DE9F04F87B000F0C4FF0190046800F0C5
:1010000065FAA569467CB54218BF457401984069E8
:1010100001990490091D019820300590082202A82A
:1010200001F08AFC02A92046FFF7D8FF01980121B0
:10103000FFF755FF07003DD0BDF90A8001E008F138
:101040000108BDF90E00404530DB0198B0F90600FB
:10105000BDF908A0A8EB000913E0000EFF280ED28E
:101060000499059800972346098801FB09F100EBD4
:101070008100414650F82B205046FFF70EFF0AF141
:10108000010ABDF90C005045D9DB0198B0F9040004
:10109000AAEB000B04984A46594600F09AFC0199C5
:1010A000C9680029D9D00028DAD1E8E70198394683
:1010B000FFF76BFF01988269100003D00198C069A7
:1010C0000121904700F016F8B54202D000F0FEF979
:1010D000467407B0BDE8F08F74000020780000204F
:1010E00031464046FFF731B9019B2A46314640461A
:1010F000FFF74FB901A800F04FBF0BB0BDE8F08F6C
:101100002DE9F64FA3B000F03CFF01900068019973
:101110000490B1F904102398884201BF24980199E2
:10112000B1F90610884200F01981002001F047FD56
:10113000219004988069079000F0C8F9417C1A91C9
:101140001A9A0799914218BF41740198B0F90400A6
:101150000C900198B0F906000C990B900198B0F929
:101160000800401A401C0A9001980B99B0F90A0037
:10117000401A401C1990002020900198007C8007A4
:1011800040F1D380019840690C991090019820306B
:101190001F902398401A06900B992498069A401A9B
:1011A00005900A98411E012A4FF0FF3009DB012209
:1011B0000992179100220F9206990A9A1892169195
:1011C00008E00F910021169109900F99069A189046
:1011D000511817911999059A491E012A08DB012017
:1011E000159000241998149013910598129007E017
:1011F000159014900C460020129005980019139039
:1012000002A90498FFF7CDFE00F05BFA00280E90CB
:1012100000F08B8000F055FA00280D9000F08280DD
:101220000C98069908181E9005990B9808181D909F
:1012300000F07DF900F0998000F0A3FE1B9001E022
:10124000159804191498844266D012980F9E84420F
:10125000A3BF1398A0420120002000F01AF91190BA
:1012600049E000F025F9A4BFBDF90A0081450CDB77
:1012700000F016F9A4BFBDF90E00484505DB019B3F
:10128000049A4946FFF72DFF0546FFB257B106986D
:10129000311A5CBF1198002814D40246109800F04F
:1012A00098FB78B900F023F9A4BFBDF90A20914258
:1012B00008DB00F038F9A4BFBDF90E208A4201DB3B
:1012C00000F01DF900F0F4F8A4BFBDF90A00814553
:1012D0000DDB00F0E5F8A4BFBDF90E00484506DBC4
:1012E0000E98049B009049461B9800F0DDF8CBF85F
:1012F00000500998861918988642A1D000F006F986
:1013000000255FEA000AF4D000F0E4F8A3BF1798C4
:10131000B042089F0027A4E71BA800F03DFE0D99EE
:1013200000F009F90E9900F006F9019923988880D8
:1013300001992498C8800A99239808180199401E99
:1013400008811999249808180199401E48811A9912
:10135000079800F0E0F8219801F031FCFFF7CAFE91
:1013600025B0BDE8F08F1598041914988442D6D0A2
:1013700012980F9E8442A3BF1398A0420120002020
:1013800000F087F81C900BE088470E99049B0091B1
:101390000246494600F08AF8CBF8005009988619B1
:1013A00018988642DFD000F0B1F8002582464FEA57
:1013B0001A60FF281190F1D000F08CF8A3BF1798A5
:1013C000B042089F002700F073F8A4BFBDF90A00DF
:1013D000814516DB00F064F8A4BFBDF90E00484556
:1013E0000FDB019B049A49464046FEF7D2FFDFF827
:1013F0009814079A00F060F805462802000A88470A
:101400002090FFB267B10698311A5CBF1C98002883
:1014100016D40246109800F0DCFA000EFF280FD117
:1014200000F065F8A4BFBDF90A20914208DB00F086
:101430007AF8A4BFBDF90E208A4201DB00F05FF804
:1014400000F036F8A4BFBDF90A008145A4DB00F026
:1014500027F8A4BFBDF90E0048459DDBDFF828043E
:10146000079950F8210000694168119A4FEA0A2053
:10147000000A002A88D088471199C1F1FF022099FB
:10148000D2B200F069FEDFF80014079A00F019F8F4
:101490007BE708901D9804EB00090598201A704717
:1014A000BDF90C004045704750F82A204046F4E44E
:1014B000BDF908008045704751F822100969496854
:1014C000704751F82210096909680847DFF8BC0322
:1014D000006870470A991F98614300EB810000EB98
:1014E000860B1E9806EB00081698864270470C98EB
:1014F0000B99BDF9082080190919904270470D9A7F
:10150000049B0092DBF80020FFF7C7BC109822462E
:10151000314600F05EBA884204D00846DFF86C130A
:10152000096848747047BDF90C20824270470198E1
:10153000C068002870470198FFF727BD2DE9F04FDC
:101540008BB000F01EFD0190806909900198C06980
:101550000A9001980468A0690290FFF7B7FF417CE8
:101560000691069A0299914218BF41740198456903
:1015700020300890012100F0A5F8002803903AD00F
:1015800001990020486104A80199091D00F0B1F8F3
:1015900004A92046FFF722FDFFF7C9FF39D000F06C
:1015A000F0FCBDF91260079019E000F0A5F85FEAC1
:1015B000000A0ED0019B2246FFF792FD00F073F85F
:1015C000234641F829003146039800900798FFF719
:1015D0006BFF08F1010800F06CF8E6DA761C00F009
:1015E0006CF802DB00F07CF8F5E707A800F0D4FC0B
:1015F0000399FFF7A0FF019845610298069900F052
:1016000085F8099818B10A98099A00219047FFF7C0
:1016100074BDBDF9126000E0761C00F04EF8E7DB07
:1016200000F05EF811E09849029A51F82210096919
:1016300009684FEA0A20000A88470246039800908A
:10164000234600F049F808F1010800F032F8E3DB26
:1016500000F052F882464FEA1A6BBBF1FF0FF2D04E
:10166000019B2246FFF742FD00F01DF8BBF1000F81
:1016700041F82900D7D0019B2246FFF737FD824968
:10168000029A00F022F80146CBF1FF02D2B2504696
:1016900000F062FD7C49029AFFF713FF0399009165
:1016A00023460246CDE72A8808997A4301EB820156
:1016B0007047BDF9140040457047BDF91600B042AF
:1016C000704709990198FFF70ABC51F8221009697F
:1016D00049680002000A084731464046FFF7DDBB73
:1016E0000198B0F90600BDF91080371A70470399C8
:1016F00001A8082201F020B90198B0F90400A8EB74
:1017000000093A464946284600F063B9884203D0AA
:1017100008465E490968487401A800F03DBC80B5E0
:1017200000F02FFC0090006801F005F806E080B59D
:1017300000F027FC0090006800F0FCFFFFF733FB8F
:1017400001BD2DE9FC4781460D4600F01AFC0090D2
:10175000C66800688769FFF726FB16B1304600F0BF
:1017600079FCE8680068800001F0A4FA060008BF70
:10177000012021D000F005FC8046CDF80480002433
:10178000DFF804A10AE05AF827108068096950F8C8
:1017900024000968884748F8040B641CE86801685D
:1017A0008C42F0DBFFF7A6FC484600F0EAFB009015
:1017B000C660FFF7F8FA0020BDE8F68700000000D9
:1017C000F4D900202DE9F84305460E462888002864
:1017D0001CBF68880028174648D0E86810B18068A8
:1017E00018B943E0E888202840D1089C0FF2241063
:1017F00004F00102002100F07AFF5FEA000835D012
:101800002888698848438000203001F053FA5FEA55
:10181000000903D1404600F068FF27E0C8F80890AF
:1018200000F0AFFB0090048200984561009886802C
:101830000098C7800098B5F90010808808180099B2
:10184000401E08810098B5F90210C0880818009958
:10185000401E48810098C0F80080FFF7A4FAE868AD
:1018600030B129464846FFF76CFF08B1002008E078
:10187000A00705D54846FFF752FF4846FFF75EFE32
:101880004846BDE8F2830000780000207400002084
:1018900010B5040082B018D0FFF7AAFB2046FFF76E
:1018A00046FF204600F06DFB0090006800F001FB51
:1018B0000098C06800F0CEFB0098C06900F0CAFB39
:1018C000FFF771FA204600F0C5FB13BD002818BFD2
:1018D000FFF716BC704710B5040082B018D000F0B6
:1018E00050FB0090007C800710D42046FFF717FFC4
:1018F000FFF759FA2046FFF721FE204600F041FB92
:1019000000900099008A40F002000882FFF74BFA2D
:1019100013BD000003000000190400088707000839
:10192000EF0800088B0A0008410C0008730C00083F
:10193000190D0008FD0D0008090E00081B0E000817
:10194000F90D0008270E000830B5039C012801FBA3
:1019500004F50AD0022814D004281FD0082827D064
:10196000102828D020282CD031E005EBD30003F03C
:101970000701805CC1F1070120FA01F202F00100C9
:1019800030BD05EB93005900805C01F00601C1F108
:10199000060120FA01F202F0030030BD05EB53000E
:1019A000D907805C02D500F00F0030BD000930BDC2
:1019B000E818805C30BD481000FB043032F810009D
:1019C00030BD881000FB043052F8200030BD0020EC
:1019D00030BD00B9704780B500920B46826881889F
:1019E000C088FFF7B1FF02BD0F21DFF8C42602EB6C
:1019F000C1031B6C984201D2491EF8D508467047B6
:101A00000160006142608360101840F8042C704748
:101A100010B504466068FFF7E7FFDFF894166368C7
:101A20000A68D21A0A6001EBC00004F108014430D0
:101A30000A68496802B1516009B10A6010BD0260CC
:101A400010BDF8B5DFF868460546A06B0E46E168A4
:101A50000818AF19401EB84203D3386808B900F01F
:101A600030F8A06BB04207D256F8040C371A386829
:101A700010B900F026F83E462846FFF7B5FF04EB04
:101A8000C0072A467B6C00213046FFF7B9FF07F1FB
:101A9000440006F10801026802B151600A600022A8
:101AA0004A600160206894F829102818206031B934
:101AB000E168081AA168814238BF0146A160284642
:101AC000F2BD786845193846A2E72DE9F143DFF801
:101AD000E045A56BE06882B04019401E01902846A1
:101AE0004768016899BB019A791991422FD28946BA
:101AF0000091D9F80480D9F8001041B3626B12F854
:101B00003120012A23D1E26A91420CBF012600262E
:101B1000FFF77EFF606BD9F8001000EBC100424672
:101B200045604946284601F0D7F826B1606B009918
:101B3000401A2818606308EB05013846FFF781FF5B
:101B4000029919B1884201D3002005E04746019867
:101B50007D198542C3D30120BDE8FE83F8B500237B
:101B60000446002504E000F06FF844F8046B6D1C97
:101B7000B5EB910FF7D30546002400E0641CB4EBED
:101B8000910F0BD200F05AF855F8046BCCEB0C2CEB
:101B9000A7EB0C07BE42F1D00320F2BD5B1C022B69
:101BA000DED300230446002504E000F04DF824F8BD
:101BB000026B6D1CB5EB510FF7D30546002400E016
:101BC000641CB4EB510F0CD200F038F8CCEB0C2CA9
:101BD00035F8026BA7EB0C07BFB2BE42F0D0022073
:101BE000F2BD5B1C022BDDD300230246002409E07A
:101BF0001D19FF26B5FBF6F6C6EB0626AD1B02F84F
:101C0000015B641C8C42F3D30246002400E0641C98
:101C10008C420BD21E19FF27B6FBF7F712F8015BB7
:101C2000BE19F6B2B542F2D00120F2BD5B1C022B08
:101C3000DBD309B101F08CF80020F2BD1F194FF081
:101C4000FF0CB7FBFCFC70475E19FF27B6FBF7F7EC
:101C5000C7EB0727F61B704710B5DFF85444002088
:101C600084F828008022002104F1400001F073F87C
:101C7000C0220021204601F06EF8BDE810400C2281
:101C80000021DFF8300401F066B82DE9F041DFF8FB
:101C90002044E06A40B9DFF81C04416880680830DD
:101CA000B1FBF0F0851C03E0206900EBD000051DBE
:101CB000E80000F08CF85FEA000827D0616BE76A63
:101CC00001EBC800406800F108062069C2003046F8
:101CD00000F042FE20696663C4F82C806A1E01E0B1
:101CE000401C4860904206EBC001F9D300204860D8
:101CF000206921696062256160682818401A606067
:101D000017B1384600F0A6F9002000E00120BDE838
:101D1000F08170B5DFF8985305F128042078002889
:101D200044D10120DFF88C63207071683068B1F510
:101D3000205F88BF4FF42051FFF710FFB06810B943
:101D400070688008B060DFF87003F06006F10C0086
:101D500001F0DCF8281D5A21C1610021102205EB99
:101D6000C1038A40491C10291A64F7D30221C160BB
:101D70003268716881608B18143BE3602261002136
:101D800005E0E3684A1C03EBC1014A601146C268E2
:101D9000521E9142F5D301210162026021698068DF
:101DA000FFF74FFEFFF771FF0120A06070BD10B577
:101DB000DFF8FC124A684B6A521C4A604A6B02EB1D
:101DC000C0046360002302F83030486210BD2DE982
:101DD000F0410546FFF79DFFDFF8D442206C8542B5
:101DE00002D3E81C8008800000F10C052068A8429E
:101DF0001BD3206B6168884207D3401E2063FFF726
:101E000044FF216B491C216378B96068D4F82480B1
:101E1000401E6060606B00EBC8014968616201218F
:101E200000F83810B8F1000F01D100203FE028463B
:101E3000FFF7DAFD002601E066B9401C102811D238
:101E400004EBC001496C39B18E68002EF5D0716881
:101E5000A94211D2B16809B90026EEE78E6871680F
:101E6000A942E9D346B92846FFF72FFE0028DED065
:101E70004046FFF79CFFD8E77768216C781B0C3150
:101E8000884238BF3D463046FFF7C2FD606B00EB2D
:101E9000C800002346602A4641463046FFF7B0FDA1
:101EA000BD4203DAA919781BFFF7CBFD4046BDE818
:101EB000F08128B17E49CA6B026002B15060C863EC
:101EC00070472DE9F8430446FFF723FFE01C800824
:101ED0008000774CE66B051D206C854238BF0546B7
:101EE00000E006468EB156F8041C3068A942F8D1CD
:101EF00008B171684160706808B131680160E06BD9
:101F0000B0422ED13068E0632BE0A06BE16801EBBA
:101F10000008A8F10409D9F80000A8EB0007386808
:101F200030B10020FFF7D1FDD9F80000A8EB000781
:101F30003868B0B97868A84213DBC019401B061D89
:101F40003846FFF765FDE068401BE06060692818CF
:101F500060617868401B1CBF3946FFF772FD46F888
:101F6000045C3046BDE8F283002818BFFFF72FBF9E
:101F7000704728B14E49496B01EBC00040680830FA
:101F800070474B49CA69521CCA61496B01EBC001D9
:101F90000A78521C0A70ECE70368454953F8083C7C
:101FA0004A6B02EBC3021378022B03DBCB690BB144
:101FB0005B1ECB611178491E117000210160002069
:101FC000704710B5FFF7A5FE00240F21384800EB3D
:101FD000C100406C10B9491EF8D508E0806830B1E6
:101FE000416880688C4238BF0C460028F6D1A4F1C5
:101FF0000C0010BD80B5FFF7E4FF2D49096AB0F56C
:10200000800F04D9642290FBF2F0484302BD48439C
:102010006421B0FBF1F002BD264A10608808800000
:10202000506070471128234905D34A68B0EB520F1E
:1020300002D3500800E0102088607047002138B1BA
:102040001B49496B01EBC00040684068A0F10C01DE
:102050000846704710B504001FBF1548406B10F8C4
:10206000341000290BD0022909DA00EBC4004168C2
:102070004868FFF7E6FC2046BDE8104097E610BD33
:1020800010B504462068FFF7E5FF0020206010BD72
:10209000F8B504460D46002607E004EB8607761CDB
:1020A0003868FFF7D7FF00203860AE42F5DBF1BD9E
:1020B00014D40020F8D80020591C0008B1F90620DB
:1020C000B0F902309A42A2BFB0F90620B1F902304D
:1020D0009A420DDBB1F90420B0F900309A42A2BF58
:1020E000B0F90400B1F90010884201DB012070470B
:1020F00000207047B1F90020B0F900309342B8BF1A
:102100000280B0F90220B1F902309A42B8BF1A46F3
:102110004280B0F90430B1F904209A42C8BF1A468F
:102120008280B0F90630B1F906209A42C8BF1A463B
:10213000C280704710B5B84C2068FFF7BAFE6068DF
:10214000FFF7B7FEA068FFF7B4FE0020A060606054
:102150002060E060206110BD01F07F4313F1807FBB
:1021600000D1704770B5C2F1FF0301F47F46DBB2C6
:10217000CDB25E43C4B25D4302FB045400F47F451C
:1021800002FB05652D0A240405F47F4555EA146415
:1021900001F47F0600F47F055E43090E02FB05652E
:1021A000000E59432D0A02FB001005F47F050004C0
:1021B0002C4300F07F40204370BD2DE9F34F8BB0DE
:1021C00000201799009014461E468146086005AB12
:1021D000002202A903A800F0C8F808B10020BAE064
:1021E00005988E49B042D8BF06468D4800680A96C9
:1021F000407C51F8201009910969089100F020FBFA
:10220000079087480068407C00F030FB85490490C7
:1022100088421CBF844988420EBFCDF81890012027
:10222000069054F8040B1699884782465FEA1A68AC
:1022300000F08680009800283AD10B980A990C9BF0
:1022400009EB000576480068B0F908008542BABF7E
:10225000471B054600270B9801EB000B09980190DE
:10226000ABF10102039800EB890000EB87000090BE
:102270001946284600F016FF0120009007990398A0
:1022800000EB8900182900EB870005DA089B0A4655
:10229000F11B00F039FF0BE0069949B10746ABEBA3
:1022A00005053868049988476D1E47F8040BF8D176
:1022B0005E4805686DB30398029F00EB89000390A8
:1022C000241F0298039900EB8900029002463346CE
:1022D0002046A847206800F07F4111F1807F02D19D
:1022E0000398006806E00399096801F07F4111F145
:1022F000807F01D102990860241D0398001D03907E
:102300000298001D761E0290E4D1029700F026F894
:1023100020E0B8F1FF0F06D10398029950F8290088
:1023200041F8290011E0039850F82910C8F1FF0284
:10233000D2B25046FFF710FF029941F8290002E09F
:10234000029840F829A000F009F8761E09F1010969
:102350007FF467AF02980DB0BDE8F08F179817991A
:10236000006840F00100086070472DE9F8432A4EEC
:10237000804630690F4614469946002538B9012039
:1023800030612B48706106F1140000F0BFFDF06869
:10239000002801BF27480068F060002802D100F043
:1023A00077FAF060B9F1000FF06818BFC9F80000C3
:1023B000B8F1000F09D0316821B900F01EF8306083
:1023C00000B901253068C8F8000047B1706820B92D
:1023D00000F012F8706000B901257068386044B1EF
:1023E000B06820B900F008F8B06000B90125B06805
:1023F00020602846BDE8F283F0688000FFF761BDE9
:10240000E0B5002814BF00AA0022002301A902A8F9
:10241000FFF7ABFF0EBD000080D800207800002041
:1024200074000020AB2D0008AF290008E4D900207B
:1024300035210008B0D90020002200F0FBBE10B505
:10244000092A0EDA012A034617D0022A43D0042AA9
:102450005CD050F8042B03F8012B491EF9D1012060
:1024600010BD112A01DB002010BD024650F8043BCC
:1024700022F8023B491EF9D1F1E750F8042BD207AC
:10248000120E491E22D000F058F842EA84121DD0E4
:1024900000F053F842EA441218D000F04EF842EA35
:1024A000041213D000F049F842EAC4020ED000F042
:1024B00044F842EA840209D000F03FF842EA4402BC
:1024C00004D010F8044B04F001042243002903F85F
:1024D000012BD2D1C3E750F8042B9207120E491EEC
:1024E0000FD000F024F842EA04120AD000F01FF8DE
:1024F00042EA840205D010F8044B04F0030422439E
:10250000491E002903F8012BE5D1A8E750F8042B58
:102510001207120E491E05D010F8044B04F00F04E8
:102520002243491E002903F8012BEFD197E710F849
:10253000044B04F00304491E704710F8044B04F0E8
:102540000104491E70472DE9F041069E80460D4664
:1025500006B946461F68092A3ADA012A06D0022A35
:1025600048D0042A60D0082A6CD07BE000F07DF8C7
:10257000C4016D1E27D000F078F86D1E44EA801467
:1025800021D000F072F86D1E44EA40141BD000F018
:102590006CF86D1E44EA001415D000F066F86D1E4C
:1025A00044EAC0040FD000F060F86D1E44EA8004D5
:1025B00009D000F05AF86D1E44EA400403D000F040
:1025C00054F804436D1E002D06F8014BCED149E0AE
:1025D000112A06DAD3F810C0BCF1000F03D0022391
:1025E00036E000203FE000F040F86D1E26F8020BB8
:1025F000F9D137E000F039F884016D1E0FD000F0FA
:1026000034F86D1E44EA001409D000F02EF86D1E57
:1026100044EA800403D000F028F804436D1E002D26
:1026200006F8014BE6D11DE000F01FF804016D1E15
:1026300003D000F01AF804436D1E002D06F8014B7C
:10264000F2D10FE0D3F810C0BCF1000F04D0012389
:102650002A463146E04705E000F007F86D1E06F80F
:10266000010BF9D10120BDE8F08158F8040B38477F
:1026700010B582B000240094FFF765FF16BD50F836
:10268000041B61B150F8042BD30744BFA9F1010327
:102690009A18002342F8043B091FFAD1EFE770476C
:1026A00081694A4A52F82130834204BF036842F8E4
:1026B0002130416809B102680A60016809B14268C5
:1026C0004A600021016041607047022801DB002060
:1026D00070473E4951F8200000E0006800281EBF06
:1026E000C16809680029F8D17047FFF7E2BBF8B567
:1026F0001F46022F04460D46164603DA1C20FFF73C
:10270000E0FB08B90020F2BD0DB105610AE02F49D8
:1027100051F8271031B100E011460A68002AFBD1B8
:102720000969016187618682C4600021016041609E
:102730008160F2BDB4E770B560B381690C46022CCC
:1027400028DA224A52F824301BB942F8240028E043
:1027500023465C68002CFBD1E3B1DC68C5682468C3
:102760002E68A642B8BF1B68F6DBB44204BF848A59
:10277000012C06D11C6824B12346DC682468B442CD
:10278000F8DA5C68002C1DBF20605968416042F88F
:10279000210001E0012070BD5860984208BF00236D
:1027A0000360002070BD38B51C46FFF7A0FF050090
:1027B00009D0FFF7C0FFE868006820B90448006846
:1027C00000EB84008565284632BD000078000020BB
:1027D0007400002038B5002502280C4607DAFFF700
:1027E00074FF20B1C268926A214690470546284688
:1027F00032BD70B504460025012621463046FFF75C
:10280000E9FF8542B8BF0546761EF6D5284670BD5D
:102810000121DFE70221DDE70321DBE70421D9E71E
:102820000821D7E70921D5E717480068407CEFE782
:1028300015480068407CEDE713480068407CF1E7EC
:10284000124951F82000C268926A0821104780B5E9
:10285000FFF73BFF28B1C268D26ABDE808400221F9
:10286000104702BD08480068407CF0E7074951F86E
:102870002000006940687047044951F82000006951
:1028800000687047000000007400002078000020FD
:102890000320AEE7B0B34108490001D101207047E1
:1028A0008108890001D102207047C108C90001D107
:1028B000032070470109090101D104207047410933
:1028C000490101D105207047010A090201D1082000
:1028D0007047410A490208D0010B090305D0C10B1A
:1028E000C90302D0010C090401D110207047810CEA
:1028F000890401D11220704710F07F4F01D11820B8
:1029000070472020704710B5FFF7C4FF002401284E
:1029100008BF01240ED0811E072938BF082409D31F
:10292000A0F10901082938BF102403D31138102859
:1029300038BF2024204610BD62B38B0708D0521E3A
:1029400011F8013B00F8013B00F024808B07F6D121
:10295000830740F0208000BF103A07D330B4B1E8BD
:102960003810103AA0E83810F9D230BC530724BF11
:10297000B1E80810A0E8081044BF51F8043B40F843
:10298000043BD20724BF31F8022B20F8022B44BFAE
:102990000B7803707047083A07D3B1E80810083A7B
:1029A00040F8043B40F804CBF7D25307E4E7704704
:1029B000F8B504460D461646FFF7E3FA00901621D7
:1029C000009A1268D268526A00209047074600F0C9
:1029D000B7F8380003D0324629462046B847F1BD43
:1029E0002DE9F14F00F0E8F884B01E46437CDDF895
:1029F00040800F988946934600224146FFF777FEB4
:102A00000027040046D0206980688047FFF77BFFDD
:102A100082460AFB0BF0C01DC0080290FFF7EAFADD
:102A20000E9DE90705D4411000EB9170801000EB7A
:102A30004000012E0BDA029900291ABF1838B0FBAA
:102A4000F1F0002071420E468642C8BF0646E807F4
:102A500007D40498009733465A46494600F0A3FC31
:102A60000746012E03DA2046FFF73FFE12E00298E8
:102A700070431830E90702D5FFF776FA01E000F05D
:102A800019F9050008D12046FFF72FFE17B1384687
:102A9000FFF7E0FA002021E0FFF773FA01900460ED
:102AA0000199049888800198A0F806900198A0F8F0
:102AB00008B00198468101990298C8600198C0F851
:102AC00010A00198476101A8FFF766FAC4F81080CA
:102AD000A56000F071F8407CA061284605B0BDE813
:102AE000F08F10B582B0002458B1FFF74AFA009079
:102AF0000068006980688047FFF705FF044600F022
:102B00001FF8204616BD10B5040082B017D06548E6
:102B10000068006EA04208BF00F07EFC2046FFF770
:102B200030FA0090406908B100F080FC009800681D
:102B3000FFF7DBFD00F004F82046FFF78BFA13BD2A
:102B400000A8FFF729BA2DE9F047044600F034F851
:102B5000407C8846544951F8207084B091469A468A
:102B60000026F9680968042903D03F68002FF8D1CE
:102B700000E017B9FFF7A9FD0746FA68D26A0121FC
:102B800038469047050013D03F690C9EB8688047CF
:102B900010F1010F04BF454F46F001060297019561
:102BA000009653464A4641462046FFF719FF06461F
:102BB000304604B0BDE8F0873A480068704770B509
:102BC000384D04002868066E82B002D100F024FC63
:102BD00014E00EB100F020FC01F01DFC2046FFF7D0
:102BE000D0F900902868046600980068FFF7A3FDFC
:102BF000FFF7A6FF01F0BAFC01F039FF304676BDC1
:102C00002DE9FE4304008846914645D0002001F09E
:102C1000B3FF0546FFF7D0FF066E2046FFF7B1F978
:102C200000900068806901F0BBFF0746204880459E
:102C300004D10098B0F90480B0F906900099ADF87D
:102C40000480BDF804000989ADF806900818401EFC
:102C50000099ADF808004989BDF806000818401E23
:102C6000ADF80A0001F0D1FBFFF76AFF01A801F0FF
:102C70000FF940B14A464146204602F088FA01F079
:102C8000ECF80028F6D1384601F08AFF3046FFF70D
:102C900096FF284601F070FFBDE8F783044A11460D
:102CA000AEE700007400002078000020D87801080A
:102CB00001F0FFFF38B50446FFF756F9050009D0CB
:102CC000FFF75FF900902246002100F044F800A8C9
:102CD000FFF762F9284632BD81423ABF5318984245
:102CE000FFF72ABE8018990707D0521E24BF13F899
:102CF000011D00F8011DF6D8704781071CD1103A5C
:102D000007D330B433E93210103A20E93210F9D247
:102D100030BC1032121F24BF53F8041D40F8041DAC
:102D2000F8D838BF121D521E24BF13F8011D00F839
:102D3000011DF8D8704700BF083A07D333E90210E5
:102D4000083A40F804CD40F8041DF7D20832EAE70B
:102D5000002202F043BA10B502E000F8011B521E37
:102D6000002A18BF10F00303F7D193081AD04FF0D0
:102D7000013402F003024C4308E040F8044B40F8F1
:102D8000044B40F8044B40F8044B1B1F042BF4DAAF
:102D9000002B1CBF40F8044B5B1EF9D102E000F889
:102DA000011B521E002AFAD110BD704710B55A49B6
:102DB0005A4C00200860702200212046FFF7CBFF0C
:102DC00004F17800BDE8104008220021FFF7C3BFDE
:102DD0002DE9FC4105460E4617469846042001F0B1
:102DE00003FC04464D48406FC16C006D4D198619B7
:102DF000CF198044ADF80050ADF80470ADF8026012
:102E0000ADF8068000A801F043F848B143463A46C1
:102E10003146284601F05FFC01F01FF80028F5D18B
:102E2000204601F0E1FBBDE8F38180B500210020E0
:102E300002F010FABDE80050394943F6FF7213461C
:102E40000846C5E710B5344C206858B90120206009
:102E500002F00AFA02F014FA32486060201DBDE860
:102E6000104053E010BD70B52F4801684908490073
:102E7000016001212D4881602D49016000682D49C4
:102E8000884200D0FEE7FFF7DDFF2B4C2E2020709C
:102E900002F04EFA214901F1680501F11406E868D3
:102EA000021DC2638063006400F108023260407C4E
:102EB00001EB80000831806FC268126B90470FF2FF
:102EC00084003065A868B060E86808303060012090
:102ED000307102F02FFA7063032028706FF0704099
:102EE000F0613062002001F036FE6FF07F4001F0AB
:102EF00036FE1248606001F0C4FD04460021002047
:102F000002F024FA01F0BFFA204670BD0C490A68AD
:102F100042600860704700005CD90020000000207B
:102F200001C0FFFFAD2D0008002000E0003002408E
:102F3000C2A507F4CDB5E8B568D90020AC77010883
:102F4000BCD900204D460008F34500082DE9FE4F8E
:102F500081460D980C9CC068D0F814B09246426A25
:102F60001000884605D001210DA89047070040F0C9
:102F7000858062480068407CFFF762FC0928009069
:102F8000B8BF012703DB1128B4BF0227042700259F
:102F900008E000F083F844F8040B761CB245F8DA38
:102FA00008F101080298404570DB012F04D0022F80
:102FB00059D0042F60D0F3E70098401E08D0401E7F
:102FC0001CD0401E012830D9801E032842D9E7E7D3
:102FD0004E46B245E4DB00F061F821784FF67F728F
:102FE00022FA05F3C5F10702194000F051F800F08C
:102FF000F80104EBE00440FA01F5EAE74E46B24579
:10300000CEDB00F04BF821784FF63F726B00DA40D0
:1030100011406A00C2F1060200F03AF800F0FC012B
:1030200004EBA00440FA01F5E9E74E46B245B7DBF0
:1030300000F034F821780F22AB009A401140AA002A
:10304000C2F104029040084320702C1985F001055C
:10305000761CEBE74E46B245A2DB00F01FF804F801
:10306000010B761CF7E74E46B24599DB00F016F8E7
:1030700024F8020B761CF7E74E468FE7019453467F
:103080000298009042460D984946B847BDE8F78F30
:10309000904008432070761C681C70470D9842468B
:1030A0003146584730B5154C2468B4F90850A84249
:1030B000B8BF2846B4F90C509542B8BF2A468242A0
:1030C00083B017DBB4F90A50B4F90E40A942B8BF77
:1030D00029469C42B8BF23468B420CDA37BD2C46AA
:1030E000E5682D6825B1042D1CBF2568002DF6D19B
:1030F00000F006F837BD079CF2E7000074000020DE
:103100000194069C009421E72DE9F0470C46012C20
:1031100010DBD3F80480092A00EB840A25DA631E49
:10312000012AAAF1040106D0022A37D0042A56D077
:10313000082A75D07CE000EBE30703F0070517F8D9
:10314000019980208A4620FA05F6F6B206EA0901BE
:10315000C5F1070221FA02F0C0474AF80409C5B9CF
:1031600017F801990725012615E0112A60DA5F6931
:10317000390004D0022322460146B84758E000EB4C
:10318000440737F8020DC047641E4AF8040DF8D111
:103190004EE06D1E7600641ED7D149E000EBA30718
:1031A0008A4603F0030517F80199C020690020FA48
:1031B00001F6F6B2680006EA0901C0F1060221FA3A
:1031C00002F0C0474AF8040925B917F80199032508
:1031D000032601E06D1EB600641EEAD128E000EB74
:1031E00063078A4603F0010517F80199F020A9004A
:1031F00020FA01F6F6B2A80006EA0901C0F10402BD
:1032000021FA02F0C0474AF8040925B917F80199D4
:1032100001250F2601E06D1E3601641EEAD107E08C
:10322000271817F8010DC047641E4AF8040DF8D19D
:10323000BDE8F08700B500BF1300964694461039EC
:1032400028BFA0E80C50FAD85FEA417C28BF0CC028
:1032500048BF40F8042BC90728BF20F8022B48BFFD
:1032600000F8012B00BD000010B5B0F90030C91AFC
:10327000B0F90230D21A036903FB020000EBE1004F
:10328000802310F8142F01F0070123FA01F444EA17
:103290000201017010BD70B5B0F90040091BB0F912
:1032A0000440A1422CDAB0F90240121B0469CD108F
:1032B00004FB0200281800F114045818401EC5EB46
:1032C000E005FF2201F0070600F0070022FA06F1F0
:1032D000C0F1070002FA00F62078F6B215B93140C5
:1032E00008430CE06D1E0843012D04F8010B04DBBC
:1032F0002946204601F06EFF2C19207830432070BB
:1033000070BDB0F90610026951431430FFF720BDBB
:1033100070B5B0F906500B68B0F90440AA421ADA49
:103320000669DD1006FB020028181430A34212DAE9
:10333000621EC5EBE20210F8014B03F00705AC403A
:1033400005E010F8014B0833521E23F00703E4B2E6
:103350002CB9002AF5D1002070BD64005B1C250645
:10336000FBD5E4B2FF2C06D01D46660644BF6400C0
:103370006D1CFAD400E0DD1D05F00704072C04D015
:10338000E81A0B60401C70BD0835521EF8D410F8C6
:10339000014BFF2CF8D0200644BF64006D1CFAD40A
:1033A000EEE7FEF757BE2DE9F8430446164606F150
:1033B0000F0000119846470007FB08F00D46143037
:1033C000FFF778FC5FEA000917D0FEF7DAFD0090FE
:1033D000048000984580009886800098A0F80680B8
:1033E00000990FF21C0088600120009988810098E4
:1033F000076100A8FEF7D0FD4846BDE8F283000053
:10340000693200089732000803330008000000000A
:10341000A33300081133000880B501F0AFFF01F0BD
:10342000A5F8BDE8014000F0F0BF000038B5044643
:10343000FEF7A7FD00908089451E0098858100A8B1
:10344000FEF7AAFD2DB215B92046FEF703FE31BDE9
:103450002DE9F041069F04460D4616469846D4F8DD
:1034600008C0DCF804C04346324629462046E047FF
:10347000761C7F1EF3D1BDE8F0810000DFF8182C28
:10348000136A0021984201D108467047526A01210F
:103490009042F9D04FF0FF3070473EB50446DFF858
:1034A000FC0B0568696C19B9204601F089FF37BD2E
:1034B00000F0A5FEDFF8E00BC06D00B9A86CFEF7C8
:1034C00060FD009001A900F01DF900F082FB21468B
:1034D00001A8FEF70FFE01A801F072FF37BD70B51D
:1034E00004460D46164600F028FE32462946806AFC
:1034F000C0032046BDE870404CBF4FF480432023FA
:103500006CE1FEB506460C461546FEF732FD00900E
:10351000876AB80735D5204600F09BF900281EBF02
:1035200040F60100384001282BD000F05BFA0090F3
:103530000246214600F0EBF901A800F08AF9F0B14B
:103540000098806A44F22001084207D0009800F1F8
:10355000080101AA083001F04BFF10E00098083084
:1035600001A900F04DFE00980099806A2843886206
:10357000DFF8240B818B491C818301F06BFF00F085
:1035800028FBF7BD2022BCE738B504460D4602E013
:10359000054600F01EFB00F082F800F01AF903D493
:1035A00000F017FB002032BD00992046FEF7A2FD77
:1035B000009880690028EBD100F00BFB2846FFF74C
:1035C0005DFFC043C00F32BDDFF8D00A10B5006800
:1035D000DFF8C44A483084B0017B21B104F108000F
:1035E000FFF75BFF1FBD0068FEF7CBFC009001A852
:1035F000009900F005FE00F0ECFAE16D11B101A8B0
:10360000FFF7C2FF01A8FFF748FF1FBD70B50D000F
:1036100084B0044642D0FEF7B4FC0190002001992A
:1036200008620198856100F03AF80290019890F8DC
:10363000280000F008050298C6691EB900F080FD58
:1036400002A829E000F0CEF9009065B990F82800B2
:10365000000708D501980662029800F071FD00F09D
:10366000F9FB00A818E000F0F5FB00F0B2FA00F05A
:1036700049F900900098066A0EB904620BE000F068
:1036800041F9002DF5D190F828100907F1D50098DF
:1036900004620198066201A8FEF77EFC7FBD284601
:1036A000FEF76FBC70B50446FEF763FC0546A869DB
:1036B000A0B1FEF75EFC0646F169A14205D10846BD
:1036C000FEF757FC006AF06170BD39B10846FEF79D
:1036D00050FC016AA142F8D1296A016270BD10B59F
:1036E00082B000F031FD0090816941B1026A00F0C2
:1036F000AEF82046FFF7D6FF00990020886100F061
:1037000068FA13BD0B46B0F90220B0F90010184654
:1037100001F0C4BE10B50446DFF87C09C06B02E0BE
:10372000FEF727FC406910B1A042F9D1012010BD7D
:1037300010B5040082B021D0FEF723FC00F049F858
:103740001AD50098406A00281EBFDFF8D81C096807
:10375000A14204D0FFF7D7F9009900204862204623
:1037600001F0AAFE044605E02046FFF7E1FF00F065
:10377000CDFA046A002CF7D100F02BFA13BD70B516
:10378000040084B00D46164622D0FEF7FAFB00F086
:1037900020F804D5009A294600F0B9F810B900F0D5
:1037A00018FA7FBD00F015FA324601A92046FFF74E
:1037B000A8FE204601F080FE044607E0324601A93B
:1037C0002046FFF7DCFF00F0A1FA046A002CF5D1D7
:1037D0007FBD009090F82800800770472DE9F041E8
:1037E0000F0084B00646144698462ED03846FEF7A1
:1037F000C8FB0090856AA80725D5009A314600F0DD
:1038000086F800B340F601002840012807D100984F
:10381000026A8169434601A8FFF7E0FF04E04246DF
:1038200001A93846FFF76DFE0098C66907E04246D9
:1038300001A93046FFF7A3FF00F064F8066A002EE6
:1038400018BFA642F3D100F0C4F9BDE8FF812023E0
:10385000C4E7B0F90410B0F900209142A2BFB0F95A
:103860000610B0F90200814201DA00207047012001
:10387000704770B584B006460C4615460BE001AAA9
:1038800021463046FFF7F5FF00F03CF8066A002EAF
:10389000F5D100F09CF9002E33D000F0A3F8009091
:1038A000866AB007F5D515B100F02FF801E000F0F9
:1038B000A5FC00F065F80028EBD0F0071ED40098B6
:1038C000B0F90200002D04D0B5F902108142A8BF62
:1038D0000846B4F90210814209DABDF90600B4F9CC
:1038E0000620411E9142D4DA401EE080D1E7BDF9A6
:1038F0000A00B4F906108842CBDAF6E70098C669E8
:10390000C5E77FBD3046FEF734BB00992A4601A8C3
:1039100001F0D9BDFEB507460C461546002610E05D
:1039200001AA21463846FFF7F5FF00B101263846C7
:10393000FEF71FFB076A002FF2D10098076A00F01C
:1039400048F9DFB13846FEF71CFB0090876AB807DC
:10395000F3D515B1FFF7D9FF01E000F04FFC00F0FF
:103960000FF80028E9D0F80705D4BDF80800401C7E
:1039700020800126E1E70098C769DCE73046FEBDFC
:1039800001A92046FEF79ABB70B584B006460C46E6
:1039900015460BE001AA21463046FFF7F5FFFFF779
:1039A000B1FF066A002EF5D100F011F9CEB100F09A
:1039B00019F80090866AB007F6D515B1FFF7A5FF94
:1039C00001E000F01BFCFFF7DBFF0028ECD0F00764
:1039D00004D4BDF80400401EA080E5E70098C66945
:1039E000E0E77FBD3046FEF7CCBA002818BF01F0F3
:1039F0009BBD704700B585B00091019000A901F012
:103A000093FD05B000BD00224A800A8003888288A9
:103A1000D21A8A80C2884088101AC880704770B550
:103A2000040086B00D4630D0FEF7ABFA0090866AEF
:103A3000B00728D500F0E2FBF00344BF2046FFF7B3
:103A400077FE5DB103A8294600F0DAFB009803A9D0
:103A5000FFF758FE03A901A8FEF74CFB214601A879
:103A6000FFF792FD78B140F601003040012806D101
:103A70000098026A816901A8FFF7E9FE03E001A945
:103A80002046FFF77FFD00F0A4F806B070BD0021CE
:103A9000C5E72DE9F04F83B0DFF89C4A074688461A
:103AA0000D98E16C0C9E91469A4641EA000546B994
:103AB000608B50B3DFF8E4050068407C04EB8000C5
:103AC000066A16F1010F08BF00261ED0EEB1FFF7FF
:103AD00089FF01900199B0F90000B1F90210C719EE
:103AE000B9F1000F884405D1019AB2F90420101AE7
:103AF00000F10109BAF1000F05D10198B0F90600F3
:103B0000401A00F1010A00F01CFB0F982C30FFF75F
:103B1000D1F85FEA000B57D0608B401C6083584699
:103B2000FEF72FFA009007800098A0F8028009EBBA
:103B300007000099401E88800AEB08000099401E8B
:103B4000C88000990E980861DFF8F0190098806A23
:103B5000294008430099886200F03BF8E06B50B1BF
:103B6000FEF707FA07465846FEF703FA79694161FE
:103B7000C7F814B001E0C4F83CB031465846FFF72E
:103B800045FDA80644BF584600F0A5F8E80702D551
:103B9000A06D401CA065680644BF584601F0E4FCD7
:103BA000A8070DD55846FEF7ECF900900099806AF9
:103BB00040F00200886200F00CF85846FFF767FFFB
:103BC00001215846FFF716FF5846BDE8FE8F0098C2
:103BD000066A00A8FEF7E0B9F8B5040064D0FFF764
:103BE00099FD002860D0204600F05FF805460B21C3
:103BF0002046FFF7FFFE204601F0F8FC2046FEF7C6
:103C0000C0F90090406A08B1FEF77DFFDFF828692F
:103C100000207066B06B06EB8000016BA14204BF10
:103C200000210163816AA14204BF00218162306CDE
:103C300005E04168A14204BF0021416000680028FE
:103C4000F7D10721204601F01DFD009FF869FFF71D
:103C5000C3FFF8690028F9D12046FFF740FDF06B5B
:103C600048B1FEF786F907467869A042F8D100F01E
:103C70004DF8406978610098806AC10702D5B16D3E
:103C8000491EB165800602D5B08B401EB083FFF798
:103C9000A0FF708B401E70832046FEF7DBF906EB19
:103CA0008500006A00F017F8F1BD10B50446FEF774
:103CB00060F980690028F9D12046BDE81040FFF77F
:103CC000DDBB80B5FFF7F1FF00285CBFBDE8024017
:103CD00000F066BF01BD70B5DFF8C053040028686E
:103CE000866C04BFDFF85018CC6B84642046FFF765
:103CF000E8FF00F0BCFE00F009F82968B0F90020E8
:103D0000CA64B0F902000865304670BD2046FEF76F
:103D100030B9DFF82C080068806C704770B5DFF8A8
:103D2000184884B0D4E90201CDE90001206920B926
:103D30002088ADF80000608811E0A089401CADF833
:103D400000006089BDF90010ADF80200B4F904006C
:103D5000884206DA2088ADF80000E089401CADF802
:103D60000200B4F90600BDF90210884264DBDFF8F6
:103D7000D05700F095F90290B4F90010BDF9000099
:103D8000884217D1E088ADF80600A088ADF804009D
:103D90002868806C08E0FEF7ECF806460022306ADE
:103DA00000A9FFF766FDB0690028F4D100F04DF8D6
:103DB000FFF75FFDBDF80000ADF804002868806CD7
:103DC0000AE0FEF7D6F806460022306A00A9FFF79F
:103DD000A1FD0028EED1B0690028F2D100F035F83D
:103DE000FFF798FD0028E5D1BDF90010B4F90400F3
:103DF000ADF80400884206DADDE90001C4E90201F9
:103E000000F028F8A6E72868806C08E0FEF7B1F813
:103E100005460022286A00A9FFF7B6FDA869002818
:103E2000F4D100F012F8FFF7AFFD00F013F82069AD
:103E300044F62161884201DB002004E0DDE9000155
:103E4000C4E90201012004B070BD0298C0690022DB
:103E500000A9704702A8FEF79FB89048006890F844
:103E6000540000B9704710B5DFF8CC4660690228ED
:103E700005DA2069401C2061FFF750FF20B9606916
:103E8000401E6061002010BDFFF79EFB012010BDA9
:103E900070B5824C06462068483086B0017B11B967
:103EA000FFF792FB06E0DFF890566969491C02298A
:103EB000696101DB012055E00068FEF762F80090BF
:103EC0004FF0FF302861287E20B3009902A8083106
:103ED00000F096F91EB1314602A8FEF70BF92068F2
:103EE000416C29B300980190082204A8FEF724FD34
:103EF000E86D28B100F025F9E86DFEF742F8019071
:103F000004A90198FFF7FEFB04A902A8FEF7F2F846
:103F100001A80EE0009890F82800800702D50099CB
:103F200002A8D5E76869401E6861FFF752FE11E0FC
:103F300000A8FEF731F8E96D19B102A8FFF724FBDC
:103F400028B12068816C02A8FFF71EFB20B96869C0
:103F5000401E6861002005E0DDE90201C5E90001BD
:103F6000FFF77BFF06B070BD80B501F095FBDFF871
:103F7000D01509680020486401BD70B588B000F014
:103F8000E3F80090866A0569009901A8083100F0FD
:103F900037F9FFF71EFE45B3B00726D52E21204680
:103FA00001F09AFBDFF89055287E401C2876F0043B
:103FB00006D500F01CF803A9204601F0B5FA0DE083
:103FC00001A8FFF765FF48B100F011F803A92046EA
:103FD00001F0AAFAFFF741FF0028F5D1287E401E24
:103FE00028762F21204601F077FB08B070BD0F2006
:103FF0000390049401A80690B6E710B50446FDF7B7
:10400000B8FF806AC0032046BDE810404CBFDFF80F
:104010003415DFF8341508472DE9FC411F4D804663
:1040200000F03EF801904046FDF7ABFF00900146DE
:1040300001980830FEF742F828B32868C66C076D6F
:1040400001980099DFF8F04400F1080201F108003E
:1040500001F039FA00F075F80099C4F85C8028681E
:10406000B1F90010C1640099B1F902100165FFF7C0
:10407000B0FD4046FFF7C1FF0020E0652868C66438
:104080000765012004E000F05CF8FFF7A2FD0020C6
:10409000BDE8F6810000000004D600207400002076
:1040A0002868806CFDF76DBF30B585B000F04CF826
:1040B000FFF78FFB3DD50098C56938E0FFF7EFFAB1
:1040C000019090F8280000F0030003282BD10098FD
:1040D00000F108010198FDF7F1FF20B3009902A853
:1040E000083100F08DF8FFF774FD00F02AF828463B
:1040F000FFF792FF58B100F020F801902846FFF733
:10410000D3FF00F01AF80190FFF700FE0090204660
:10411000FDF737FF0090FFF7C2FA019002A900985F
:10412000083000F06DF80198056A00F00AF8002DDB
:10413000C4D1FFF74EFD05B030BD2846FDF719BFCD
:10414000C46101A8FDF728BF0446FDF71ABF38B5C2
:10415000FFF7FAFF009040F60101806A084001284D
:1041600004D0FFF736FD2046FFF747FFDFF8C8030E
:10417000806D00B32046FFF797FFFFF7C7FD846906
:10418000056A16E0FFF7D9FF90F8280000F0030059
:10419000032804BF2846FFF73FFF2846FFF784FFA8
:1041A000FFF7CBFF056A002DECD1FFF7AFFD056AE5
:1041B0008469002CF7D131BD3EB5DFF88453044645
:1041C000FFF76EFF009001A80099083100F018F881
:1041D00000982968083008310822FEF7ADFBFFF788
:1041E000F8FC2068FFF7B3FFFFF75AFF009001A922
:1041F000083000F005F8FFF7ECFC37BD009901A886
:104200000822FEF799BBF1B584B0FDF7BAFE019024
:1042100002A801990831FFF7F3FF0198856A8669C2
:104220000769FFF78EFF002444F22000054231D0D9
:10423000EFB1049902A8FFF7A7F9C0B10498FFF7FE
:104240004AFD68070FD5002E0EBF012005F00100C2
:1042500080F001000090002304AADFF8F01202A809
:1042600001F041FA03E00498FFF771FF012404987C
:10427000FDF787FE0190B649806A084081040199E4
:1042800048BF40F004008862FFF75BFFAA48818BBB
:10429000491E8183204605B0F0BD80B5FDF769FE5B
:1042A000816A41F4004181620120A349886601BD11
:1042B0002DE9F047A04C206E002501009EB002D0F1
:1042C000804700E00125A06EB8B1E66B06E03746F6
:1042D0000646FFF77EFC3846FFF77EFC5EB1FFF72F
:1042E00081FB00900099896A40690904EFD4064671
:1042F000FFF76FFCF2E70020A066206D010018BFF9
:10430000804794480068010002D080470028D9D136
:104310008B4E306890F8540000284DD001F086FA9A
:104320000028CFD1306890F8540000281CBFA08B23
:10433000002841D0606D10B10068804704E0012082
:1043400001F0DDFA00E00125306890F8540060B318
:10435000A08B50B3676E4FF0010807B9E76B01A857
:1043600001F0D6FA3068D0F83090D0F834A057B9C0
:104370000EE03846FFF747FF08B1A8F101083846BC
:10438000FDF7F7FD4769002F18BFB8F1000FF0D116
:104390006766484601F0CEFA504601F0C9FA01A816
:1043A00001F0BCFAA08B0028CDD1606D10B140683F
:1043B000804701E001F0A3FA28461EB0BDE8F0876F
:1043C00010B5044620680E2802D00F2809D017E047
:1043D000E0684168012917D1BDE81040006801F08C
:1043E0001FBA6068FFF74AF8534901EB80006FF08D
:1043F0007041406C884203D001F09AFAFEF715FD37
:104400002046BDE810400FE010BD4D49096801206D
:1044100081F8540070474A490968002081F8540027
:1044200000F025BBC0D9002010B5044621686068A3
:104430000E290ED0142906D0172908D022290DD014
:1044400028290ED002E0E16801F076FA0020E06051
:1044500010BD2146BDE8104001F08EBA6FF07040EB
:10446000F5E7BDE81040FFF712BB33480021417665
:1044700081660164016381624163C1628165C165D6
:10448000C164416570472DE9F0432B4C607E0028E4
:1044900085B04DD12A4DE0636066002629682E4F15
:1044A0004864A083608343F6FF783046FEF70DF939
:1044B000A8B10020039002970220019043464FF0DC
:1044C000FF300090424600210020FFF7E2FA04EBA3
:1044D00086016FF0704208624A64FFF7D8FA761CD2
:1044E000022EE2DB0026DFF874801D4FDFF87490A7
:1044F00009EBC60001F04EFA07EBC60001F04AFADC
:1045000008EBC60001F046FA761C022EF0DB206AAA
:10451000FFF7E1FB2968012081F85400607605B0BF
:104520001148E06604F16C00BDE8F043FEF7EEBC14
:1045300005B0BDE8F083000004D600209F3F3F0097
:10454000740000201F6401087B3F0008B941000887
:10455000DFBFFFFFA8D90020C143000898D7002083
:1045600088D70020480300206B44000810B5074C92
:104570002068006B00F0CBFA00F0DBFA2068406B9B
:1045800000F0C5FABDE8104000F0DCBA740000206D
:1045900080B500F054F94A6B824205D0486300F0C0
:1045A000B6FABDE80240CDE201BD80B500F047F9A2
:1045B0000A6B824205D0086300F0A9FABDE8024008
:1045C000B7E201BD70B5DFF8A0150A68117C80EA7A
:1045D00001035B0705D5936BD56B1C682E681E60C5
:1045E0002C601074084670BDDFF880150968896872
:1045F000084738B5DFF870251268B2F90A309942D9
:10460000A4BFB2F90E308B421FDBB2F908309842DA
:10461000A4BFB2F90C30834217DBDFF85435547C69
:1046200053F82440137CE568DB0707D50A460146AA
:10463000EB69204601B0BDE830401847D26B1368E3
:104640000A4601462046AC69A04731BD10B5DFF8E7
:1046500018351B68B3F90A40A142A4BFB3F90E4054
:104660008C420FDBB3F90840A042B8BF2046B3F933
:104670000C409442B8BF2246824203DB00F020F88F
:10468000A468A04710BD10B5DFF8DC341B68B3F98F
:104690000840A042A4BFB3F90C4084420FDBB3F939
:1046A0000A40A142B8BF2146B3F90E409442B8BFB8
:1046B00022468A4203DB00F003F8E468A04710BDFD
:1046C000DFF8AC445B7C54F8234013460A460146AD
:1046D0002046E468704738B5DFF88C442468B4F9A4
:1046E0000850A842B8BF2846B4F90C509542B8BF4C
:1046F0002A46824218DBB4F90A50A942B8BF2946BB
:10470000B4F90E509D42B8BF2B468B420CDBDFF84C
:104710006054647C55F82440009313460A460146D1
:104720002046E4682469A04731BD2DE9F84F00F028
:1047300086F986B000F037F902D000F070F949E050
:104740005818421E2819431E1098DDF844C04CEA40
:10475000000001283FD1DFF810040068B0F90AE03A
:10476000AEEB0107012F09DB0699C91B0129069150
:1047700030DBDDF84CC071460CFB0766B0F90E70FB
:10478000D71B012F04DB069AD21B012A069221DBDC
:10479000B0F90C209A1A012AA8BFAD1A169AB0F9DE
:1047A0000830A41A9C4217460BDADF193F1BEB1A9C
:1047B000BA1AE51806EBE70622F00702141907F00B
:1047C0000707012D06DBDFF8A823407C52F8200004
:1047D00000F03AF948E100F0FCF801E000F0EFF8F1
:1047E000019806998842F5DA00F00DF9A2BFB0F9F8
:1047F0000E0000998842F1DB00F0CFF807E000F0EE
:10480000FAF800F0D6F80AF1010A10988144AA4596
:10481000E4DA00F0E5F800F00AF810B90A7C920733
:10482000F1D400F0B4F8EAD052F82000E7E7049998
:10483000FFB227FA01F012998F40A8EB0108CA498C
:10484000096870472DE9F84F00F0F9F886B000F0DC
:10485000AAF802D000F0E3F86CE0DDF844C0581884
:10486000109B2A19401E521E4CEA0303012B62D1F1
:10487000BD4B1B68B3F90AE0AEEB0107012F09DB62
:104880000699C91B0129069154DBDDF84CC071461D
:104890000CFB0766B3F90E70C71B012F04DB0698EB
:1048A000C01B0128069045DBB3F90C00101A012843
:1048B000A8BF2D1AB3F908000027844232DA071B7B
:1048C000129AED1B012A0CD0022A12D0042A18D009
:1048D000082A1ED0102A1ED0182A18BF202A1DD040
:1048E00020E006EBE70627F00700041907F00707AA
:1048F00018E006EBA70627F00300041907F00307EA
:1049000010E006EB670627F00100041907F0010725
:1049100008E0BE1904E006EB470601E006EB870657
:1049200004460027012D05DB91485A7C50F82200EF
:1049300000F08AF898E000F04CF801E000F03FF851
:10494000019806998842F5DA00F05DF8A2BFB0F947
:104950000E0000998842F1DB00F01FF807E000F03C
:104960004AF800F026F80AF1010A10988144AA4595
:10497000E4DA00F035F8FFF75AFF10B90A7C920725
:10498000F1D400F004F8EAD052F82000E7E7C96B50
:10499000159AD1F800B0002A70474FF0000803962E
:1049A000A146C24670470027149EBCF1000F154671
:1049B00070476D480068C06BC0F800B07047019840
:1049C0001199401C019000980818009013988619BE
:1049D000704712980091C0F1080004900197704749
:1049E000B8F1000F06D10398401C03904FF008085F
:1049F00010F8017D704708601098029B00994844A8
:104A0000421E484667E6119800990818401E029019
:104A1000554800680299B0F90A20914270471598EC
:104A2000069B059004961398039012980290119893
:104A30000190109800902046DCF800402047044682
:104A40004C48D0F800C07047159A05920497039619
:104A50002B46139A0292129A0192069A00920A46E3
:104A60002146C4686468204707B0BDE8F08F3E481F
:104A700001683F484A7C50F82200C268126B083136
:104A8000104770B582B0FFF7F2FF00F0A3FF0400FB
:104A900013D100252846FDF718FE009050B1009A6A
:104AA000D268526A0C2100A8904701002DD00098CE
:104AB000884704436D1C022DECDB24BB00F0C0FFD3
:104AC000012543F6FF762846FDF7FFFD0090C0B1B3
:104AD000284600F065F80420FFF786FD334632468D
:104AE00000210020FFF7F7FD0020FFF77DFD009A71
:104AF000D268526A0E2100A8904701001CBF00989E
:104B000088476D1EDFD5204676BD012076BD164A4A
:104B100017491268527C51F8221009690968084740
:104B2000114A13491268527C51F8221009694968E8
:104B300008470D4909680A7C52074CBF896BC96B4D
:104B400008607047084909680A7C52074CBFC96B66
:104B5000896B086070470549096849680847034937
:104B6000096809680847000074000020E803002075
:104B700078000020B8D90020FFF736BD00210228B8
:104B80003CBF0E4951F820100846704738B50C4616
:104B9000154601F007F810B100202060286031BDF3
:104BA00038B5044606480068457C022C3CBF447476
:104BB000FEF732FC03480460284632BD78D9002055
:104BC000740000203CD6002000F0B8BF00F08CBF7D
:104BD00000F09EBF2DE9F84F00F01EF839F8020BE7
:104BE000A847B047641E4AF8040BF7D1202F00D223
:104BF0001BE0BDE8F18F2DE9F84F00F00DF819F832
:104C0000010BA847B047641E4AF8040BF7D1202FC8
:104C100000D20AE0BDE8F18F8A4693460A9D0B9EBA
:104C200081461F46D0465C4670473A465946404644
:104C3000BDE8F84FFDF703BC2DE9F44F88460FF2AD
:104C40008C5196B081460CC913A8DFF8E8740CC0EB
:104C500000F096FA0A904569D0F80CA00669B0F900
:104C600008000B900A98B0F90A0010900A980068A2
:104C7000006940680D903868407CFDF7E1FD0C90BC
:104C80003868407CFDF7F2FD00900AA8FDF784F932
:104C9000092E05D2012E4FF0010B07D113AC06E00F
:104CA000112E2CBF4FF0040B4FF0020B00240D9877
:104CB0000099884200F093803868407CFDF7DCFD65
:104CC0000F900B988000FDF74FF900280E9000F030
:104CD000E680484600F07AFF002D814679D02846CC
:104CE000FDF74FF90890002702E0DDF848907F1C9F
:104CF0001098874269DA002000F003F905460AEBB4
:104D0000090012901698381811900B98854225D1F9
:104D10000E98FDF736F90990092E0F980C9B09990A
:104D200001902A460D980090484602D3FFF752FFA3
:104D300001E0FFF760FF0594012309980B9A119990
:104D40000490002003900C980290012001900090A4
:104D500000F0D2F809A8FDF71FF9C6E7012E1FD110
:104D6000002DC2D000F09EF811994044FFF7DDFC01
:104D700000F0C5F80546F3E7FFF73DFF0594012372
:104D80000998119904902A46002003900C980290EB
:104D900000F09FF809A8FDF7FFF800F0B0F805460D
:104DA000002DA2D00E98FDF7ECF80F990C9B019105
:104DB0000990092E0D99079800910BFB0090099915
:104DC0002A46D9D3FFF706FFD8E708A8FDF7E4F88D
:104DD00001E000F085F80E98FDF73CF95FE04846E9
:104DE00000F0F4FE002D814657D02846FDF7C9F8A3
:104DF0000890002713E00594CDF80CA0029601233B
:104E000007980C990BFB009004902A4600F061F87B
:104E100000F075F80546002DEDD1D1447F1C1098A7
:104E2000874236DA002000F06CF8054616983818EC
:104E30000C900B9885421ED1009700E07F1C0898CB
:104E400083685B697A1C07A99847A842F6D0009846
:104E50000594381A451C0120019000900B9A0C997A
:104E6000CDF81090CDF80CA002962B4600F044F837
:104E70000AFB0599D2E7012ECDD1002DCDD000F04F
:104E800011F80C994044FFF750FC00F038F8054643
:104E9000F3E708A8FDF780F801E000F021F817B06B
:104EA000BDE8F08F079800F0070006900594CDF854
:104EB0000CA00296012307980799801001EB50700F
:104EC00009EBE00004900120019000902A46079829
:104ED000704701200190009007984044FFF7B2BC52
:104EE0000120059401900090109B0B9A1699CDF823
:104EF0001090CDF80CA002964046FFF7A3BC07988F
:104F0000281807903A46089883685B6907A91847EC
:104F10002DE9F24F8EB0814692461D46FDF731F8DD
:104F20000790B0F90880B0F90AB0C0680C900798F3
:104F3000183009900798006800690A9007A8FDF7E3
:104F40002BF80A987C4940680B907A480068407CAE
:104F500051F820100C692768FDF772FC092838BF4A
:104F6000012603D3112834BF022604260A98A04242
:104F700010D1002005905B460998049042460C9899
:104F80000390029501200190009051460E98FFF782
:104F900059FCCBE0202D08FB06F04ED1FCF7E4FFD6
:104FA00000280990F5D0FCF7ECFF00F0E8F800F0DD
:104FB000CDF82CD0012E09EB880704D0022E04D0A6
:104FC000042E04D00BE0012302E0022300E00423BE
:104FD0000699D4F810C042464846E047B94600F06A
:104FE000BBF8BBF1010BE5D197E0069D59F8040B26
:104FF000B847641E25F8020BF8D118E0069D59F851
:10500000040BB847641E45F8040BF8D10FE0012EDD
:10501000444604D0022EE8D0042EEFD007E0069DCF
:1050200059F8040BB847641E05F8010BF8D100F0DD
:1050300093F8BBF1010B70D0E9E7102D76D1FCF7A6
:1050400093FF0028099071D0FCF79BFF00F097F8C0
:1050500000F07CF81EBF0A984069002836D00798F7
:10506000B0F908008000FCF77FFF0B9090B1FCF7CF
:1050700088FF0028089050D009EB4800012E0090CE
:1050800004D0022E08D0042E0AD013E000F056F807
:10509000012308E0089040E000F050F8022302E00D
:1050A00000F04CF804230898276942462946B8477F
:1050B000DDF8009000F050F8BBF1010BDCD108A83E
:1050C000FCF76AFF0B98FCF7C5FF26E0012E44466B
:1050D00004D0022E0BD0042E12D019E0069D00F051
:1050E00052F8B847641E05F8010BF8D110E0069D90
:1050F00000F049F8B847641E25F8020BF8D107E024
:10510000069D00F040F8B847641E45F8040BF8D13E
:1051100000F022F8BBF1010BD8D107A8FCF73CFF47
:1051200006A8FCF739FF0998FCF794FF0FB0BDE81B
:10513000F08F000074000020780000200A9F069D78
:1051400008997F690223424648463847079000F194
:10515000180920690028704700200590012306984F
:1051600004904246002003905146F00002900AF15C
:10517000010A0120019000900E98FFF763BB069092
:105180004846FCF7FEBE39F8020B0B990847F8B504
:1051900004460D461646FCF7F4FE0090476900A849
:1051A000FCF7FAFE2046FDF79CFC092800DB2FB136
:1051B000324629462046FFF73FFDF1BD0346324601
:1051C00029462046FFF7A4FEF1BD000000000000C4
:1051D0000100000062F30F2262F31F42401810F03A
:1051E000030308D0C91A1FD3DB0748BF00F8012DFD
:1051F00028BF20F8022D130030B41446154610398C
:1052000028BF20E93C00FAD8490728BF20E90C0054
:1052100048BF40F8042D890028BF20F8022D48BF60
:1052200000F8012D30BC7047C91818BF00F8012DD7
:10523000CB0728BF00F8012D70470000044909681A
:10524000888400207047024909684884002070471C
:105250007400002038B50C46FFF7F5FF05462046E0
:10526000FFF7ECFF284332BD80B54FF448410348B7
:10527000FCF7D2FE8020FCF7D5FE01BD140400200F
:1052800010B5002300220E490E48FDF78CFA00F0FD
:10529000E7FC040000F0E8FC0100A4B2220089B29F
:1052A000002000F021FC00F0DBFC040000F0DCFC3E
:1052B0000100A4B2220089B2002000F001FC10BD60
:1052C00090780108E476010810B403000800012872
:1052D0000CD002280CD003280CD004280ED00528AE
:1052E0000ED006280ED00E2806D00DE000200FE0CC
:1052F00000200DE000200BE0002009E0002007E086
:10530000002005E0002003E05FF0FF3004002000F3
:1053100010BC704705480068704704490968411887
:10532000024A12688A1A012AFADA70478CD90020D8
:1053300070477047034904480968497C50F82100C8
:10534000704700BF7400002024D60020074A084B95
:105350001080084A11801B68074A5B7C52F8233092
:105360000A4601461846DB681B6A1847F6D9002032
:1053700074000020F8D900207800002010B50E4CF1
:105380000E482168497C50F8210050B1C168096875
:10539000042903D000680028F8D102E008B1FDF725
:1053A000C9F920680021016600F108014161BDE8EA
:1053B0001040FFF75CBB00BF7400002078000020A5
:1053C00030B5094D2968497C0446084850F8210049
:1053D000C268126B83B000A99047286800AA2146D2
:1053E000083000F070F837BD74000020780000200D
:1053F00000B9704710B509B30AB3B2F90030B1F97A
:1054000000409C42B8BF23460380B2F90240B1F984
:105410000230A342C8BF23464380B1F90440B2F929
:105420000430A342B8BF23468380B1F90640B2F9E5
:105430000630A342B8BF2346C38010BD1146BDE865
:1054400010400822FDF778BA11480068010018BF23
:10545000004770470F480068010018BF00477047B9
:1054600010B50D4C206858B100F03FFD58B100F068
:1054700042FD58B121680A0008D0BDE81040084735
:1054800000F033FD10B9BDE81040DDE710BD0000AD
:10549000FC030020CCD90020D0D9002058B10388CB
:1054A000CB1803808388C9188180418851184180B6
:1054B000C1885118C180704700B9704780B5FCF7AA
:1054C00058FDC06902BD10B5B1F90030B2F9004015
:1054D0009C42A8BF23460380B1F90240B2F90230D2
:1054E000A342B8BF23464380B2F90440B1F9043067
:1054F000A342C8BF23468380B2F90640B1F9063003
:10550000B0F90410A342C8BF2346C380B0F90020FD
:105510009142A2BFB0F90610B0F90200814201DA4F
:10552000002010BD012010BD70B50E4C054620684E
:1055300014280E4614DA2846FCF71BFD0169756035
:10554000080008D02068401C20603046884720684A
:10555000401E206070BD3046BDE87040FEF764BF5D
:1055600070BD00BFD8D900202DE9F041040086B0FD
:1055700039D0FCF706FD009003A800990822FDF73A
:10558000DBF90098056A866A00A8FCF705FD20464D
:1055900000F059FD070026D0204600F065FD80464A
:1055A000B00704D52A46414603A8FEF750F9204625
:1055B000FCF7E7FC00904046FCF7E3FC019038461E
:1055C000FCF7DFFC0290056201980099C06908624F
:1055D0000198C46100A8FCF7DFFC01A8FCF7DCFC23
:1055E00002A8FCF7D9FC06B0BDE8F08170B582B026
:1055F000044600A800F096FC054608E0009E00A9BD
:10560000284600F09FFC0546304600F015F895B19D
:105610000121284600F006FD009959B150B1084615
:10562000FCF7A7FC4068A042E8D000A9284600F09B
:1056300089FCE1E7F9E773BD10B5040082B00AD038
:10564000FCF79FFC0090006800F09BFC00F017F84E
:105650002046FCF7FFFC13BD10B582B00C4668B1C4
:10566000FCF78FFC00901CB10068214600F0B8FCEC
:105670000098006800F0BFFC00F001F813BD00A81E
:10568000FCF78ABC00B585B026220391009200A9E0
:1056900000F072F905B000BD80B5002000F048F9B7
:1056A0006FF07F4000F046F9012000F0E5FC00209B
:1056B00000F0EAFC002000F0F1FC0020FFF75CFAAB
:1056C0000448006800F0F4FCBDE80240002000F04F
:1056D000F9BC00007000002000F0FCBC8142C8BF93
:1056E0000146084670472DE9FE4F074643480068CB
:1056F000457C4348285602288A46934698462846C1
:1057000006DBFDF785F881462846FDF783F805E0BE
:10571000FDF782F881462846FDF780F8054617B365
:1057200001A902A800F0F8FCB7F90040B7F902603F
:105730000298002CB8BF0024002EB8BF00264844B1
:10574000411EB7F90400FFF7C9FF814601982818E8
:10575000411EB7F90600FFF7C1FFA9EB0401801B4A
:105760004A1C451C02E0002400264A46B8F1000FFE
:1057700008BFC5F10008012AA8BF012D38DB0C982D
:105780000090434631462046FDF7DDF95FEA000907
:1057900003D15846D04701202BE000F0BFFC8046E3
:1057A0004846FDF70CFA00271AE0E91B4145BCBF4B
:1057B000484600F0C7FC3FB1BA192146484600F000
:1057C000D9FC484600F00AFD5846D0470A4801680F
:1057D00008001CBF002088474846FDF75FFA474491
:1057E000AF42E2DB4846FDF78EF90020FDF7E7F90E
:1057F0000020BDE8FE8F0000D4D9002074000020F6
:10580000F4D90020134A02F15003984218BF00F166
:10581000080209B18A4200D0104670470021F1E722
:105820000D498A6802B98860FFF714BE70B50A4C4A
:1058300021686268002091420AD00D684E680846CF
:10584000FFF7ECFF20603146284600F0E5FC012020
:1058500070BD00007CD60020A0030020F8B5012414
:10586000022844DA284E06EB800539B3022914D009
:105870003DD2696879B9FCF728FF0028009036D03E
:1058800000F037F8020032D0009801219047686894
:105890000024401C2AE0481C28E0FCF716FF00907A
:1058A00028B300F026F8050021D03068010018BFA9
:1058B000804700980221A847002418E06968012960
:1058C0000FD1FCF702FF009058B100F012F807006A
:1058D00007D03068010018BF804700980021B84702
:1058E00000246868010018BF0121401A6860204642
:1058F000F2BD009AD268526A0D2100A810470146F5
:1059000002480068407CA9E70CD900207400002000
:105910000149096809E000007400002001460148BF
:1059200002E000BF7400002000687022FDF714B888
:10593000FFF711B9FFF713B910B50C46002818BFCF
:10594000002C82B008D0FCF71CFB00902146FEF72B
:105950005AF800A8FCF720FB13BDEDE704490A68DC
:1059600012B9044909688A6C01461046F5E700003F
:1059700060D600207400002038B50D00044608D021
:1059800000F072FB28B1AC602946BDE83440FFF757
:10599000CBBD31BD0A490A680260086070470849FA
:1059A0000A6862B10023824205D110680BB1186009
:1059B00070470860704713461268002AF3D1704799
:1059C00044D6002010B5394C6068FCF772FA00200C
:1059D000606010BD10B5354C606868B92068800003
:1059E000FCF76FFA606008B9012010BD3048A06074
:1059F00004F10800FDF78AFA002010BDF8B5002870
:105A00001CBF8468002C06D0284D696819B106684F
:105A1000B6F5807F01DD0020F2BD2868B042B8BF36
:105A20000646002707E054F82700FFF770F869687A
:105A300041F827007F1CB742F5DB6868F2BDDDE75F
:105A40002DE9F84F00F004FC80460024DFF8649054
:105A5000DFF864A0194F0DE0F0B2FFF761F80246DD
:105A6000F1B2204600F08AF8761C5E45F4DB386817
:105A70004574641C444517DA2046FCF726FE0028CE
:105A8000F7D03868457C44742046FCF7C9FE0928E5
:105A9000EDDA5AF8240000694845E8D02046FCF7C2
:105AA000C1FE83460026E0E7BDE8F18F80030020B9
:105AB000C5590008A878010878000020740000206B
:105AC00070B582B000F056F80126009050B100F099
:105AD00049F80A2100A89047030003D000F046F8D7
