:020000040800F2
:10000000D8C40020450100085DB600080979000841
:1000100059B60008D10F0008F5EF000800000000F5
:1000200000000000000000000000000005DA0008E9
:10003000E91B00080000000059B80008A5DB000813
:100040005F0100085F0100085F0100085F01000810
:100050005F0100085F0100085F0100085F01000800
:100060005F0100085F0100085F0100085F010008F0
:100070005F0100085F0100085F0100085F010008E0
:100080005F0100085F0100085F0100085F010008D0
:100090005F0100085F0100085F0100085F010008C0
:1000A0005F0100085F0100085F0100085F010008B0
:1000B00081DE00085F0100085F0100085F010008A1
:1000C0005F0100085F0100085F0100085F01000890
:1000D0005F0100089DEC00085F0100085F01000857
:1000E0005F0100085F0100085F0100085F01000870
:1000F0005F0100085F0100085F0100085F01000860
:100100005F0100081DD300085F0100085F010008BF
:100110005F0100085F0100085F0100085F0100083F
:100120005F0100085F0100085F010008C9130008B3
:10013000DFF80CD000F04AFB00480047AFF8010898
:10014000D8C400200648804706480047FEE7FEE77F
:10015000FEE7FEE7FEE7FEE7FEE7FEE7FEE7FEE777
:1001600015DC0008310100082DE9F05F054600208C
:1001700092469B4688460646814640241BE0284618
:1001800041464746224600F0EAF853465A46C01A0E
:10019000914110D311461846224600F0D1F82D1A8D
:1001A00067EB01084F4622460120002100F0C8F805
:1001B00017EB00094E41201EA4F10104DFDC484684
:1001C00031462A464346BDE8F09F10B5431A934294
:1001D00009D28318881803E010F8011D03F8011DE7
:1001E000521EF9D210BD40EA01039B0703D009E07B
:1001F00008C9121F08C0042AFAD203E011F8013B13
:1002000000F8013B521EF9D210BDD2B201E000F855
:10021000012B491EFBD270470022F6E710B51346AA
:100220000A4604461946FFF7F0FF204610BD421C5F
:1002300010F8011B0029FBD1801A7047034611F802
:10024000012B00F8012B002AF9D11846704770B530
:1002500006461BF03DFE046805460A220021304692
:1002600000F08DF82C6070BD30B480EA010202F01D
:10027000004530F0004221F0004013D090B1C30D92
:10028000D40DC2F31601C0F31600E41A41F40001C4
:1002900040F400027D34914201D3641C00E0490027
:1002A000002C02DA30BC002070474FF4000000231D
:1002B000914201D3891A034340084FEA4101F7D123
:1002C00051B1914202D14FF0004105E002D24FF00E
:1002D000010101E06FF0010103EBC450284430BC80
:1002E00000F085B896230022114600F089B800F08E
:1002F000004230F000400AD0C10D01F56071C0F33A
:10030000160042EA0151C20840071143704700201D
:100310000146704730B50B460146002020220124DB
:1003200009E021FA02F59D4205D303FA02F5491BC3
:1003300004FA02F52844151EA2F10102F1DC30BDD9
:10034000202A04DB203A00FA02F100207047914095
:10035000C2F1200320FA03F3194390407047202A8A
:1003600004DB203A21FA02F00021704721FA02F35F
:10037000D040C2F1200291400843194670472DE950
:10038000F04791460F4680460446002614F8015B6C
:100390002DB100F03FFA0068405DC007F6D12B2D6B
:1003A00002D02D2D18D0641E4A463946204600F052
:1003B00035FA27B13968A14201D1C7F8008071052B
:1003C0004FF002040BD54042002803DD1BF080FDF6
:1003D0000460A007BDE8F08746F48066E4E70028E3
:1003E000F8DA1BF075FD04606FF00040F2E70029B9
:1003F000A8BF7047401C490008BF20F001007047AB
:1004000010B4B0FA80FC00FA0CF050EA010404BF0A
:1004100010BC704749B1CCF1200421FA04F411FA60
:100420000CF118BF012121430843A3EB0C01CB1DA4
:100430004FEA00614FEA102042BF002010BC704715
:1004400000EBC35010440029A4BF10BC7047401CEF
:10045000490008BF20F0010010BC70472DE9FE4F95
:10046000804681EA0300C00F0C46009021F0004155
:1004700023F00045B8EB0200A94105D240462146D1
:1004800090461C460B46024623F00040104347D0DE
:10049000270DC7F30A00C3F30A510290401A0190D6
:1004A00040286BDAC3F3130040F4801B0098924697
:1004B00020B10023D2EB030A63EB0B0B01985946E2
:1004C000C0F140025046FFF73BFF06460D4650463E
:1004D0005946019A00F08CF910EB080061410024A4
:1004E00087EA115284EAE7731A4340D0009A62B354
:1004F000019A012A4FEA075215DC001B61EB020149
:100500004FF0004202EA0752CDE90042001C41F5DB
:10051000801132462B4600F0DFF903B0BDE8F08FC2
:1005200040462146F9E7001B61EB0201001C41F542
:10053000801300185B412018A2F5001747EB030158
:1005400040EAD570B6196D4111E06D084FEA3606E4
:1005500045EAC0754FEA0752001B61EB0201001C1F
:1005600041F5801149084FEA3000001951413246E7
:100570002B4603B0BDE8F04F00F09FB90098012270
:1005800040000023D0EB020263EBE07300982146A9
:100590004FEAE074B8EB000061EB0401E9E783F097
:1005A00000435BE781F0004158E72DE9FE4F81EA07
:1005B000030404F0004421F0004100944FF0000BCC
:1005C00023F0004350EA01045ED052EA03045BD0FA
:1005D000C3F30A54C1F30A552C44A4F2F334019432
:1005E000A0FB0254C1F3130141F48011C3F31303C0
:1005F00043F4801301FB024400FB034E840A970A74
:1006000044EA815447EA8357A4FB076802958D0AA0
:1006100005FB07854FEA932C04FB0C542705029D2C
:100620004FEA065847EA1637B5EB08056EEB070C9C
:10063000870E920E47EA811742EA8312A7FB020156
:10064000B6EB0B0164EB00042B0D43EA0C335E1890
:1006500044EB1C50DA465146E7FB0201C5F3130494
:100660004FEA0B3343EA14534FEA0432019C43EA46
:100670000603A4F10C040294009CCDE900B400F040
:100680002BF903B0BDE8F08F00200146F9E72DE912
:10069000F04D81EA030404F0004B21F000451446BC
:1006A0004FF0000A23F0004150EA050220D054EA3E
:1006B00001021DD0C5F30A570246C5F31303C1F367
:1006C0001300C1F30A5640F4801543F48013A7EBDE
:1006D0000608101BD64608F2FD3873EB050002D35E
:1006E00008F1010801E092185B41B8F1000F03DA4C
:1006F00000200146BDE8F08D00204FF48011064631
:1007000084460EE0171B73EB050705D3121B63EB42
:10071000050306434CEA010C49084FEA30009218E1
:100720005B4150EA0107EDD152EA030012D082EAA0
:10073000040083EA0501084305D0101BAB4106D233
:100740000122002306E000224FF0004302E06FF098
:10075000010253101AEB06004CEB085110EB0A0093
:1007600041EB0B01BDE8F04D00F0A7B8C1F30A5210
:10077000C1F3130140F2FF3341F480119A4202DACF
:1007800000200146704740F233439A42A2F23342BE
:1007900002DC5242FFF7E3BDFFF7D2BD30B5041EC5
:1007A00071F1000404DB4FF00044404264EB0101AE
:1007B000141E73F1000405DB1C464FF00043524247
:1007C00063EB0403994208BF904230BD064C074DCD
:1007D00006E0E06840F0010394E807009847103411
:1007E000AC42F6D3FFF7A8FC08EB040828EB04089A
:1007F000202A06DBCB17203A41FA02F043EAE073E5
:1008000006E041FA02F3D040C2F1200291400843D1
:10081000194670470048704734E904082DE9F05F35
:1008200082460078002715468B460AF10104B94636
:10083000302801D09DB113E014F8010B012778286E
:1008400003D0582801D045B10AE00DB1102D07D1D1
:100850000027102514F8010B02E0082500E00A2506
:100860000026B0460EE005FB080005FB06F1012757
:1008700001EB10461FFA80F8B6F5803F00D3B94669
:1008800014F8010B294600F075F80028EBDABBF1EB
:10089000000F05D00FB1641E00E05446CBF80040B5
:1008A000B9F1000F06D01BF013FB02210160C81E36
:1008B000BDE8F09F48EA0640FAE710B5141E73F150
:1008C000000408DA401C41F1000192185B411A4310
:1008D00001D120F0010010BD2DE9F04D92469B465C
:1008E00011B1B1FA81F202E0B0FA80F22032904602
:1008F000FFF726FD04460F4640EA0A0041EA0B01D5
:1009000053465A46084313D0114653EA010019D002
:10091000C8F140025046FFF722FD05460E465046FC
:1009200059464246FFF70CFD084305D0012004E07C
:1009300020463946BDE8F08D0020054346EAE076C2
:100940002C4337430A986305E40AA0EB0800002211
:10095000FD0A44EA47540A3002D500200146E9E77F
:10096000010510196941DDE9084500196941BDE833
:10097000F04DA2E73A2800D2303820F02002412A78
:1009800001D3A2F13700884201D34FF0FF30704706
:1009900070B58D1810F8014B14F0030201D110F856
:1009A000012B231106D110F8013B03E010F8016B75
:1009B00001F8016B521EF9D1ABB110F8012B04F014
:1009C0000C048A1A0C2C03D0A2EB84129B1C08E0A6
:1009D00010F8014BA2EB0422F8E712F8014B01F8E2
:1009E000014B5B1EF9D5A942D4D3002070BD00286D
:1009F00000DC4042704710B50446214651200BF000
:100A0000DBFE10BD2DE9F04105460C4616461F469B
:100A1000DDF81880E9B258200BF0CEFE29125920DB
:100A20000BF0CAFEE1B25A200BF0C6FEB8F1000F7F
:100A300004D121125B200BF0BFFE05E0802040EACC
:100A400024215B200BF0B8FEF9B25C200BF0B4FE61
:100A500039125D200BF0B0FEF1B25E200BF0ACFE5F
:100A600031125F200BF0A8FEBDE8F08110B5012027
:100A70000449087050200BF02FFE80200BF04CFE34
:100A800010BD0000EC00002010B5002406E00BF0C3
:100A900059FC00F0400000B903E0641C03488442A4
:100AA000F5D300BF00200249087010BDA0860100E8
:100AB000EC00002038B545680446014628460EF093
:100AC000A1FC00282BD02068304A11280DD006DC6C
:100AD0000B2825D00E2833D00F2852D112E0282819
:100AE00049D0B0F5107F4CD108E09268002A16D0AA
:100AF0002146284601B0BDE830401047214628462F
:100B00005268F7E7284603F025F90090406E046824
:100B1000684603F077F9002C01D02846A04738BD7D
:100B2000284603F017F90090683003F077F8009832
:100B300003216C3003F07AF8684603F063F920E093
:100B4000E168486809680D2902D0202913D105E021
:100B5000002810DD284617F0C2FF06E0002804DD5B
:100B60002846BDE8384017F0BABF2846BDE83840EF
:100B7000022117F0CABFE06818B90021284600F02A
:100B8000DCF92046BDE838400FF0AEB8780200200E
:100B9000F0B585B00DF1280C9CE8F0004FF0000C8A
:100BA0008DE8F01000F024F805B0F0BDF0B5044673
:100BB00085B08069B4F90850668A0027CDE90265DE
:100BC000CDE900170490B4F90C00B4F91060C11815
:100BD000B4F90A00B4F90E50104433462A4600F026
:100BE00007F80546616800F0B1F905B02846F0BD88
:100BF000F0B585B00C46DDE90D51DFF854C04C313D
:100C0000DDE90A67CDE902C12146CDE900670EF0B2
:100C1000BDFF040018D003F09DF81022294604906F
:100C20000EF0BAFD049830220A493430FFF7CDFAAD
:100C3000084D04990C3D2868486604A803F0E2F8C2
:100C4000286841682046884705B02046F0BD00006E
:100C5000B50A000884020020F0B5044680688B497C
:100C600089B051F82050606800287DD0052804D054
:100C700006287AD0122879D1AEE0E86900284FD052
:100C800095E80E008DE80F0004F110010FC906F081
:100C90005BF8002655F8260005F00AF8A169E86916
:100CA0000A1A216901446069304403F0FBFEA1691E
:100CB000E8690A1A21690144E069801B03F0F2FE29
:100CC000E169E8690A1A616901442069304403F066
:100CD000A5FFE169E8690A1A61690144A069801BFE
:100CE00003F09CFF761C022ED4DBA86804F0E0FF22
:100CF000E069E9696669431A206942183144801C39
:100D0000521E04F023F8E169E869A2690B1A6169CF
:100D10000144101A401C921E04F018F8EE6913E00A
:100D20005FF0000655F8260004F0C2FFE069831B5F
:100D3000A069821B606981192069304403F014FFA7
:100D4000761C022EEEDB0226D5E90301CDE9000177
:100D50006169E06908444310A069891C821B20690D
:100D6000304403F06BFE02E089E012E08AE0D5E94E
:100D70000501CDE90001E36960690121184401EB37
:100D80006001A0699B1E821B2069304403F056FE5F
:100D900078E0206802F0DEFF0490206810F04AFB43
:100DA00040B1A06808B1002008E00498006F28B1A5
:100DB000012003E00498406F00B10220049901EB88
:100DC0008000C56E04A803F01DF800231A462846CB
:100DD000216803F001FC55E0206802F0BBFF04909D
:100DE000866EEEB3B0F95C70A168D1B3032942D02E
:100DF0005FF0000100EB8101406D0C6C04F066FFB8
:100E0000204604F055FF05A804F040F8BDF8141082
:100E1000A88B0144ADF81410BDF81810081AADF8ED
:100E20001800BDF81600801CADF81600BDF81A00B9
:100E3000801EADF81A000498B0F96020B0F95E1079
:100E400005A804F085FD04A802F0DCFF022004F0F0
:100E500083FF304602F07EFF3A4605A9079001E085
:100E60000BE006E003F08EFC0DF11C0002F0CAFF5F
:100E700008E00121BEE70221BCE704A8F6E72068EC
:100E80000FF028FF09B00020F0BD00008CC9040855
:100E900008B50023009300F001F808BD70B51646B0
:100EA0000C46054619463046049A03F079FB024683
:100EB00021462846BDE8704000F070B8F8B51546E8
:100EC0000C4606000DD002F045FF0090032C02D224
:100ED00000EB84004563684602F094FF30460FF053
:100EE00028FCF8BD01490862704700008402002018
:100EF000044A0349116004494A6A4862104670472F
:100F0000B4020020780200208402002000294FF063
:100F1000100101D00EF006BB0EF060BA38B50D46D8
:100F2000040009D002F016FF00904565684602F003
:100F300069FF20460FF0FDFB38BD4FF48072002999
:100F4000114601D00EF0EEBA0EF048BA2DE9FF417D
:100F50000E4605004FF001041CD002F0FBFE01908C
:100F6000876E01A8009702F04DFF3146684606F0F3
:100F7000C5FA78B100980024B84208D0284602F09B
:100F8000E9FE01900099816601A802F03BFF284626
:100F90000FF0CFFB04B02046BDE8F081F8B5154650
:100FA0000C46060013D002F0D5FE0090032C0BD2A5
:100FB00000EB84006C3002F031FE009800EB8400FE
:100FC000C56630460FF0B5FB684602F01BFFF8BD62
:100FD00000BFFEE72DE9FF470446006810B110F09E
:100FE00029FA68B10022314850F8221060680A28B6
:100FF00041D007DCF0B306280DD0072854D106E015
:101000000122F0E712280AD019284DD137E02046F6
:1010100011F03CFD48E0204613F0F2FA44E020686D
:1010200002F098FE0290B0F9548090F85650476C48
:10103000466B02A802F0E6FE206800F039F881460F
:1010400068460EF089FFBDF8001009EB0500084462
:10105000ADF80000246A304604F038FE022004F0A7
:101060007BFE384604F024FE42466946204603F0E3
:1010700089FB19E007E0204613F0DBFF14E08869E4
:1010800004B0BDE8F08720680FF024FE206802F06D
:1010900061FE0390B0F90610B0F90220891A491CCC
:1010A000C16703A802F0AEFE0020E9E79CC904086E
:1010B00038B502F04FFE0090C46F684602F0A2FE01
:1010C000204638BD044A034911600449CA69C86111
:1010D00010467047400300205008002054080020AC
:1010E00000B589B024216846FFF796F819200190D1
:1010F00003480068806841686846884709B000BDB9
:101100005008002070B50446049D581A2E1B7043E9
:10111000161B90FBF6F0084470BD0000014609B9AB
:1011200009487047012901D10020FAE7022901D1BD
:101130000020F6E7032901D10020F2E7042901D1BC
:101140000020EEE70020ECE7B409002008B52520D8
:101150008DF8000000208DF8020001208DF80300BA
:1011600068460AF07DFA08BD7FB50EF011FF05460E
:1011700004202A490622CDE90052CDE90210284870
:10118000C068274E76693044254E7668331A244865
:10119000C068234E766981192148026800200EF04C
:1011A000F5FC1F498862886A0FF021F805461C4942
:1011B000886A0FF00BF8064600211A4A02231848E5
:1011C000806ACDE90132039100902B4632460846F1
:1011D0000EF0DCFC1249886A0FF009F80546104948
:1011E000886A0EF0F3FF064600220F4902230C48DE
:1011F000806ACDE90131039200902B4632460021EE
:1012000008460EF0C3FC04460A2003F01DFA2046EF
:101210000FF0D6F90A2003F017FA7FBD29C30108A1
:10122000788B00203DC901080DC2010810B508F0F7
:10123000B3F91C49086008F0BBF91A49486014204A
:10124000C8611E20086208460068086108464068B8
:10125000C969401A1349096A401A124948610020B5
:1012600088600846C069C8600846006988610CF05B
:10127000D5FB0EF08DFE04460EF006FE0EF088FE45
:10128000044609490FF006FC00F03CF8FFF76CFF3C
:1012900000F00EF81EF0E0F9C62104481EF044FBF1
:1012A00010BD0000788B002069C1010824010020D6
:1012B0007FB50EF06DFE044604200F4906220F4D47
:1012C000CDE90042CDE902106B692A69E968A86896
:1012D0000EF05CFC2946C8620021094A0623284614
:1012E000C06ACDE901320391009028464369026942
:1012F00008460EF04BFC7FBD11CA0108788B002018
:1013000009C8010830B585B00EF042FE054604203C
:1013100025490622CDE90052CDE902102348C368D1
:101320000021026808460EF031FC2049086320A025
:1013300040F261110E220223CDE90132CDE9031002
:101340001A48006B00901948C369002102690846D9
:101350000CF0C3FC174908601749164800680CF0E8
:101360005BFD1649134800680CF078FD4FF4B87126
:10137000002202230D48006BCDE901320391009059
:101380001423282200210220FFF702FC04460C4A05
:1013900000212046FFF77CFD0A4A01212046FFF785
:1013A00077FD05B030BD000009D20108788B002020
:1013B00057444100200100204C9704084040FF00A2
:1013C0002C950208C0A1020810B50BF0BBFF10BDA0
:1013D00000F0805111B10349086001E00249486002
:1013E0007047000004040240000002402DE9FC4167
:1013F000002830D0112916D0132910D005460C46EC
:1014000002F0A8FC009000F0D7FB0646684602F008
:10141000F9FC204619F024FF074600241EE0BDE831
:10142000FC4100F0E3BABDE8FC4100F063B921469D
:10143000284600F0C4FB019078B1007819F010FF45
:1014400000F0FF0801A802F0DDFCB84505D12146F7
:10145000284600F045FBBDE8FC81641CB442E6DB95
:10146000F9E7F8B50C46050013D0002C11D002F0B6
:1014700071FC0090C66B684602F0C4FC2046FEF783
:10148000D6FE421C2146304602F0E0FC28460FF012
:1014900050F9F8BD2DE9FF4145680446284602F0A1
:1014A00059FC0190D0F8886001A802F0ABFC0EB1A5
:1014B000012700E00027214628460DF0A3FF002861
:1014C00056D02068112844D006DC0B2863D00E28A3
:1014D00078D00F282BD14FE0212805D026281AD00C
:1014E000B0F5107F23D139E0E068416800291EDDA6
:1014F00000680D281BD1304608F0E3FE002806DB0B
:10150000304608F0DEFE0146284600F0E9FA28469B
:1015100000F07EF875E0E068012809D00A2802D0C2
:101520000B2871D111E00A2128460FF0B4F96BE0C5
:10153000304608F0C6FE002866DB304608F0C1FEE3
:101540000146284600F0CCFA5BE0284600F060F83F
:101550005AE0FFB9E068007A98BB55E0E06848B10E
:10156000007A08B1012100E0022128460FF093F92A
:10157000BDE8FF810321F8E72E46284602F0EAFB8A
:101580000290D0F88400056802A802F03BFC0DB17F
:101590003046A84738E0284602F0DCFB0090C06BDC
:1015A00002F094FC0098D0F888000EF0D1FB00986F
:1015B000D0F8940002F00AFB684602F023FC23E016
:1015C00000E016E0E068416800291DDD016820297F
:1015D0000FD006DC092910D00A2915D01B2904D107
:1015E00012E0212910D022290ED02846FFF7FEFE56
:1015F000BEE7284600F0E0F806E00EF0F9FCB04245
:1016000002D128460FF0F0FA20460EF06DFBAFE74E
:1016100038B5040011D002F09DFB0090D0F888008E
:1016200040B10EF095FB00990020C1F888002046DB
:101630000FF07FF8684602F0E5FB38BDF0B585B0E5
:101640000DF1280C9CE8F0004FF0000C8DE8F01034
:1016500000F002F805B0F0BD2DE9FF410C461D4633
:10166000DDE90D71DDE90B36DFF880E0DDF828C03B
:101670006C31CDE900C3CDE902E14FF0FF332146E3
:101680000EF084FA04002DD002F064FB10223946DB
:1016900000900EF081F800983822154980F88C608F
:1016A0004C30FEF792FD124E0098361F3168C0F89C
:1016B0008410002180F89010C586204600F05BFA67
:1016C000684602F09FFB02F0FEFB0546204602F052
:1016D00041FB0090C563684602F094FB30684168A6
:1016E0002046884704B02046BDE8F08195140008E4
:1016F0009003002010B5044600F06BF9010000D003
:10170000411E2046BDE8104000F0EAB9F8B5054694
:10171000006802F01FFB0090448ED0F88860684695
:1017200002F070FB06B1012604F0010428680FF0F6
:1017300081FE0EB1002006E00CB1012003E008B1EB
:10174000022000E003201B4951F82010686858B3BC
:1017500002280CD0052802D0122828D103E0284600
:1017600011F0C0F923E0284614F0B7F81FE06A69C9
:10177000E8694FF0FF33801AA0F1080203EB62041E
:10178000421CAB69001B4510A3EB6206C86904F05C
:101790008FFA06E03219311B284603F083F9641EE4
:1017A0006D1C002CF6DA02E028680FF093FA002096
:1017B000F8BD0000A4C904082DE9F14F9EB01E98A1
:1017C00000287CD002F0C6FA0B901E980EF0FEFCAA
:1017D00003900B98B0F9367090F890101891C16B87
:1017E0000A9190F88C90B0F93410159100F0E4F95A
:1017F00082460B9804ACB0F88E101491B0F98210A8
:101800001391C16C1291D0E90012CDE90C12D0F8FD
:1018100094B0002100EB8102126D44F82120491C94
:101820000329F7D3002107AD00EB8102D26D45F803
:101830002120491C0329F7D300210EAE00EB8102C1
:10184000126F46F82120491C0329F7D30BA802F098
:10185000D9FA1E980EF059FC02F07CFA1190D0F8DB
:10186000008011A802F0CEFA4FEA284042420FFA57
:1018700088F041420CA804F06BF85FEA897003D548
:10188000BDF83200C01B01E0BDF83600ADF83200F3
:101890001E980EF03AFC014603980222CDE900079B
:1018A0000292BDF93230BDF93020002008F09DFCD5
:1018B00080465FEAC97009D04046189900E077E099
:1018C00008F05AFF0121404608F09EFE002708E07C
:1018D00039460A9802F057FB0146404608F043FBA0
:1018E0007F1C5745F4D30027394654F8272040463B
:1018F00008F0AFFE7F1C032FF6D30024214655F8D5
:101900002420404608F0BCFF641C032CF6D30024BE
:10191000214656F82420404608F013FF641C032C8F
:10192000F6D35FEA0B001FD002F014FA169030F8DD
:10193000025B00240646012711E000BF06EBD4003D
:1019400004F00701007807FA01F1084201D00122F2
:1019500000E000222146404608F0A3FE641CAC4291
:10196000ECDB16A802F04EFA4046149908F0C7FEC8
:101970004046129908F081FE4046139908F070FF26
:1019800040460FF031F940461E9908F0CAFE404625
:10199000159908F009FF01211E980EF07CFF1E9892
:1019A00002F0D8F90B90C0F888800BA802F02AFA50
:1019B0001FB0BDE8F08F38B5002440B102F0CAF97D
:1019C000009000F0F9F80446684602F01BFA204641
:1019D00038BD38B5002438B102F0BCF90090B0F938
:1019E0003440684602F00EFA204638BD10B5044671
:1019F000FFF7EFFF411C2046BDE8104000F070B833
:101A00002DE9FC4716460F465FEA00092DD0002F4E
:101A10002BD0FFF7D0FF0546484602F09BF9009017
:101A2000D0F83C80D0F88840684602F0EBF9AE422E
:101A30001DD23846FEF7FBFB421C3146404602F001
:101A400008FB40B102F086F939460190FEF7F6FB3B
:101A500001A802F0D7F948460EF06BFE002C04D026
:101A600032463946204608F040FCBDE8FC8739463E
:101A70004846FFF7F6FC002CF7D03946204608F020
:101A800028FAF2E70149086070470000900300203F
:101A9000044A0349116004490A6B08631046704701
:101AA000C80300208C03002090030020F8B50C46EA
:101AB000002698B102F04EF90090B0F93660D0F8E7
:101AC0008850C486684602F09DF93DB128460EF064
:101AD0007DFB0146224628460FF035F93046F8BD19
:101AE00038B50C46050019D002F034F9009000F02A
:101AF00063F800B1401E844200DD04460098B0F94E
:101B00003410A1420BD08486684602F07BF9284647
:101B10000EF00FFE042128460EF0BDFE38BD6846CB
:101B200002F070F938BD38B50C4605000AD002F055
:101B300011F90090A0F88240684602F063F9284647
:101B40000EF0F7FD38BD38B50C46002588B102F01F
:101B500001F9009090F88C10C1F3400514B141F0E8
:101B6000020101E021F0020180F88C10684602F0C9
:101B700049F9284638BDF8B5044602F0EBF80146AD
:101B80000090B0F9380010B9C86C03F033FA00992E
:101B9000CA6AB1F98030126800EB43001618084693
:101BA0000FF0C6FA0546684602F02CF9324629467F
:101BB00020460FF0C8F8F8BDC06B02F0D8B938B5B0
:101BC0000D46002402F0C6F80090C06B294602F0D2
:101BD000DAF90546684602F015F91DB1284602F00B
:101BE000B9F80446204638BD70472DE9FC470E463B
:101BF0005FEA000978D002F0ADF8009090F85470D8
:101C0000D0F85880456BC46C684602F0FBF8B8F118
:101C1000000F04D0314648464246904761E0122EFC
:101C200018D006DC082E43D0102E3CD0112E06D141
:101C300012E0132E21D01D2E43D01E2E3DD0202E7B
:101C40004FDB17B1484610F0D0FDB1B2484616F050
:101C5000F1FA60B3611C27E04DB3284602F07AF830
:101C600005462146019004F0DFF94419204604F0AE
:101C70009DF901462346012210E0C5B1284602F035
:101C800069F805462146019004F0CEF94419204632
:101C900004F08CF9014623464FF0FF32484610F01D
:101CA00062FA01A81BE0611E484600F031FA18E014
:101CB000BCB1611E484600F02BFA484610F095FD75
:101CC0000FE0484602F046F80090012F0ED00121A7
:101CD00080F854102146484600F01AFA684602F08F
:101CE00091F848460EF025FDBDE8FC87002180F8FC
:101CF0005410F3E7FEB54468054620460FF09AFB02
:101D00000646294620460DF07DFB002837D028687E
:101D10000F2830D004DC0B2832D00E2853D13AE003
:101D2000A0F58070133804D0A0F580702D384AD10A
:101D300010E020460EF07AFE2046002117F02EFC1F
:101D4000204602F007F80190C06F00210EF055FE0A
:101D500001A81DE0E86860B1017A29B10168204658
:101D600000F0E1F8012100E0022120460EF093FD91
:101D700029E00321F9E70121204617F00FFCFEBD01
:101D8000204601F0E7FF0090343001F047FF68463D
:101D900002F038F817E0B6B1E8684168002912DDB2
:101DA00001681B290FD006DC09290CD00A290AD0AA
:101DB0000D2904D107E0212905D0222903D020468E
:101DC000FFF713FFFEBD28460DF08EFFFEBDF0B5F8
:101DD00087B00DF1300E9EE8F0104FF0000E8DE848
:101DE000F05000F003F807B0F0BD0000F0B585B08A
:101DF0000D46DDE90D640F9FDDE90AC141F4805114
:101E0000DFF870E0CDE900C15837CDE902E7294697
:101E10000DF0BCFE05002AD001F09CFF10223146D7
:101E200004900DF0B9FC04981C2213496030FEF7B1
:101E3000CCF90499012081F85500601C00D00120E4
:101E400081F88000002C00DC082424B20C870020DC
:101E50004887486304A8641C01F0D4FF2146284643
:101E600015F0F7FF18B928460DF072FF002505B0F0
:101E70002846F0BDF51C0008840400201CB5002491
:101E800080B101F067FF0090406B40B101F062FF4C
:101E9000019005F07BF9044601A801F0B3FF684604
:101EA00001F0B0FF20461CBD2DE9FC4115460E0097
:101EB00022D0002820D001F04DFF0027019037707C
:101EC000406BB0B101F046FF009005F05FF90146AC
:101ED000009804F0A9F80446681E844200DD044618
:101EE000224630460099FEF770F9684601F08AFFF5
:101EF000375501A801F086FFBDE8FC81F8B515460D
:101F00000C4606000ED001F025FF009038B1022CDF
:101F100005D200EB8400456730460EF00AFC6846A7
:101F200001F070FFF8BD2DE9F04186B00C460600C7
:101F300050D001F00FFF0090406B98B301F00AFF02
:101F400003900098806E03F0C1FE804630460EF08C
:101F50003DF90746039802F0E6FF0546009890F821
:101F6000601001F00301012916D002290DD0416E45
:101F7000C06A00680844241A641E039805F006F934
:101F80000146002C0FDA002115E0781B401C00EB05
:101F9000D070A4EB6004F0E7406E791B081A241A95
:101FA000641CEAE713E0AC4205DC024621460398D4
:101FB00005F08CF80146304600F0AAF803A801F0BD
:101FC00021FF404603F082FE30460EF0B2FB684629
:101FD00001F018FF06B0BDE8F081000001498860FB
:101FE000704700008404002038B50D46040009D075
:101FF00001F0B0FE0090856620460EF09AFB684620
:1020000001F000FF38BD2DE9FC4788465FEA000972
:102010004FF0000655D001F09DFE0090B0F9385009
:10202000446B684601F0EEFE0027B8F1000F3ED089
:102030004CB1204601F08EFE0190FEF7F8F8461CE8
:1020400001A801F0DFFE404605F0A0F80446A842D2
:1020500000DD2C462146404603F0E6FF451CA91B47
:10206000484616F083F908B3484601F073FE009025
:10207000406B01F06FFE2A4641460190FEF7A5F83D
:102080000198284400F8017C0098C464B0F9381025
:102090008C4205D190F85410012901D1641EC4640A
:1020A00001A801F0AFFE684601F0ACFE06E0009822
:1020B000343001F0B3FD00984787C76448460EF0FE
:1020C00038FBBDE8FC8738B50C4605000AD001F0A6
:1020D00041FE009018B1046628460EF02AFB6846BF
:1020E00001F090FE38BDF8B515460C4606000ED03E
:1020F00001F030FE009038B1022C05D200EB8400D4
:10210000C56630460EF015FB684601F07BFEF8BD53
:102110001CB50C4601F01EFE0090406BF0B101F0C2
:1021200019FE019005F032F8009991F8542002B19F
:102130000122002C00DA0024844200DD0446B1F9BB
:102140003800801AA04200DA0446C86CA04200D0D1
:10215000CC640020086501A801F054FE684601F037
:1021600051FE1CBD2DE9F047044640688EB00027A3
:10217000804601F0EFFD0090B0F87CA0D0F86890A8
:10218000D0F88060D0F88850C06D00B1076868460C
:1021900001F038FE05E0696820468847002843D1F1
:1021A0002D68002DF7D12068172853D00CDC0F289C
:1021B0003DD004DC0B2877D00D2825D18BE01128E9
:1021C00010D0142820D13BE0262846D004DC1E285D
:1021D00051D0202818D18AE02A2816D0B0F5107FD7
:1021E00012D128E04046E56801F0B4FD0290697A1A
:1021F00039B9297A012904D130F87C1F41F4807162
:10220000018002A801F0FEFD75E0404601F0A2FD4C
:102210000090E16811B1C0F8841002E0D0F88400A9
:10222000E060684601F0EEFD0EB0BDE8F087D7B380
:102230004046B8475FE02146404616F04FFFF3E7BF
:1022400005A9404600F016FCE06806990160079970
:102250004160E9E7C4F80C90E6E7E0680228E3D1C2
:10226000CDF83080E0680D9027200A900AA9A06878
:102270000FF0F0FAD8E7E068012804D000214046CA
:1022800000F0C8FAD0E730460EF0A8FA68B1304640
:102290000EF0AAFC30460EF083F998B101213046C9
:1022A0000DF040F90EE026E02FE048460EF0EAFC83
:1022B0000646404601F04EFD0090C0F8806068463A
:1022C00001F0A0FD0121404600F0A4FA002EABD1A0
:1022D0000020E060A8E75FEA0A700CD4E068C068FC
:1022E00048B1007A38B140460EF07EFC03E021464A
:1022F000404616F027FC214640460DF083F80028A2
:1023000092D020460DF0F0FC8EE7404601F022FD11
:102310000090703001F082FC684673E7F0B587B03A
:10232000B0F908400DF10C0C0C9E876945688CE8EB
:10233000F000448A0025CDE900150294B0F90C1094
:10234000B0F91050B0F90E40B0F90A001944104429
:102350002B46224600F002F807B0F0BD2DE9F04709
:102360008AB00DF14C0CDDE917849CE86006129FE1
:1023700045F48055DFF8BCC06034CDE902C4CDE936
:1023800000750DF003FC04004FD001F0E3FC302297
:10239000494604900DF000FA04982822264934306A
:1023A000FDF713FF0498244FC0F86480A0F87C6008
:1023B0000026C0F88060C666083FC0F8886079686B
:1023C000C16504A801F01EFD05A9204600F052FBDE
:1023D0001A4841F2827103960094CDE90110BDF9CB
:1023E0001E00BDF91A10BDF91C20431ABDF91800D2
:1023F0005B1C121A521C0DF0C9FB06467868416836
:1024000020468847204601F0A5FC0490866604A873
:1024100001F0F8FC42F20400054202D120460DF022
:1024200028FD5146204600F067FA0AB02046BDE874
:10243000F087000065210008A80400207D2D000819
:102440002DE9F041044694B0006800F0B7F908B1F6
:10245000D94D01E0D84D2C35606815281ED00CDC14
:102460000B281FD004DC00287ED005287DD12FE169
:102470000E287BD01228F9D141E1162806D0172862
:1024800008D0182808D01C28F0D109E0E86914B059
:10249000BDE8F081286AFAE7686AF8E7A86AF6E713
:1024A0006869F4E720680B901C200C90206801F00C
:1024B00051FC0390016D0BA88847064603A801F064
:1024C000A1FC022E0FDB95E807008DE80700D4E998
:1024D00004023346A16904F005FC20698719A0694C
:1024E000A0EB06082CE0286803F0E2FB2169E8690C
:1024F0000A18521E606902F0D5FAA269E869111A39
:10250000491C606902F0CEFAD4E904077F1C394601
:1025100002F00AFB3946A06902F006FB686803F086
:10252000C7FB20693946401C02F0FEFAA069394613
:10253000401E02F0F9FAA0692769A0F10208BF1C49
:10254000286803F0B5FB42463946606902F0AAFAF2
:10255000686803F0ADFB606942463946401C02F0F2
:10256000A1FA686A022802E015E1B0E000E10BDDA3
:10257000A86803F09DFB61696A6A881C8B18014694
:10258000424638465B1E27E0296AB14226DD606973
:10259000022E074600F1020801DB374401E007F193
:1025A0000207206901DB304401E000F102002269EA
:1025B0003B460A444146A2F1010202F0C7FB022E4B
:1025C00002DBA069821B01E0A269921EA069E96991
:1025D0003B46401A4146401C02F0B8FB022E02DB8B
:1025E0006069064401E06669B61CE76928687F1ED9
:1025F00003F05EFB3A463146206902F00FFB3A4693
:102600003146A06902F00AFBE7696868BF1E03F063
:102610004FFB20693A463146401C02F0FFFAA069A0
:102620003A463146401E02F0F9FAE869022802DC17
:10263000286A022823DDA86A022802DDE1690F1A50
:1026400001E0E769BF1EA86803F032FBE9690229CF
:1026500009DD20693B46421800F1020C3146604614
:10266000521E02F073FB286A022808DDA269E8699D
:102670003B46101A3146401C921E02F067FB286848
:1026800003F016FBD4E90620216902F00BFA686812
:1026900003F00EFBD4E906202169401E491C521E9E
:1026A00002F000FAA86A022811DDA1692669E4692E
:1026B000A1F10208271AA41EB61C7F1CA86803F00B
:1026C000F7FA234642463946304602F03FFB71E0B6
:1026D000208A00B2ADF81400A18A09B2ADF8161034
:1026E000228B12B2ADF81820A38B1BB2ADF81A30B2
:1026F0002C69ED68CDE9005402F0A0F95AE0208A77
:10270000298B0844ADF81400A08AADF81600208B80
:10271000298B401AADF81800A08BADF81A0020687C
:1027200001F018FB0390006FF0B1022003F014FBDE
:10273000039890F87C10C1F3C00100EB8100006C9D
:1027400003F0B6FA0398406B03F0C0FA0398006FE9
:1027500001F000FB03990990B1F95A2005A902F094
:1027600011F809A801F04EFB03A801F04BFB21E092
:10277000208AADF81400A08AADF81600208BADF8C1
:102780001800A08BADF81A00A86803F091FA05A80C
:1027900002F000FB0EE0206801F0DCFA039030F854
:1027A0005A1F41F00C01018003A801F02BFB2068A7
:1027B0000EF090FA00206AE6E404002038B5002408
:1027C00050B101F0C7FA009090F87C00000700D5E6
:1027D0000124684601F016FB204638BDF8B50E46C8
:1027E00005004FF000040CD001F0B4FA0090C06D69
:1027F000314680680268284690470446684601F0E2
:1028000001FB2046F8BD0000014800687047000049
:10281000A8040020002801D017F0DCBD704738B5AF
:102820000C4600280CD001F095FA0090816CA14272
:1028300003D08464806E0DF07CFF684601F0E2FAFC
:1028400038BD00000149086070470000A80400205E
:10285000074A0649054B1160064A083BD169586092
:102860001B68C2E90630084670470000D804002003
:10287000A4040020A8040020022803D2024A02EB8C
:102880008000C16070470000A8040020014908844E
:1028900070470000A80400202DE9FC410D46070008
:1028A00028D001F057FA0190C16D8C6800F049F909
:1028B00080460198456301A801F0A4FA226801212D
:1028C0003846904706462268032138469047054619
:1028D00022680021384690470446384600F017FA2F
:1028E0002B46324641463846009400F0A0F938465F
:1028F0000DF01FFFBDE8FC817CB50D46040019D02A
:1029000001F028FA0090006F0190684601F07AFA11
:10291000294601A804F0F2FD00280BD0204601F062
:1029200019FA009001990167684601F06BFA204698
:102930000DF0FFFE7CBD38B50C4605000FD001F050
:1029400009FA0022009000EB8201521C0C64022A5A
:10295000F9D3684601F056FA28460DF0EAFE38BD74
:102960002DE9FC470D465FEA00094FF000042DD029
:1029700001F0F0F90190B0F95440A54223D000F0E5
:10298000E0F8804601980121A0F85450C06D856898
:1029900048462A68904707462A68032148469047D8
:1029A00006462A680021484690470546484600F0FA
:1029B000AEF933463A4641464846009500F037F9AD
:1029C00048460DF0B6FE01A801F01CFA2046BDE80D
:1029D000FC872DE9FC470C465FEA000948D001F06E
:1029E000B9F90090428E114614B141F0200501E082
:1029F00021F02005AA4238D04586484600F087F9E4
:102A0000009EF4691FE0204601F0A4F90190076AD6
:102A1000B0F90200B6F90210A0EB010801A801F01C
:102A2000F1F9B6F9561041450CD1B06EA04209D06B
:102A300096F832008006204602D50EF0FEF901E03D
:102A40000DF0BEFD3C46002CDDD1009890F87C00D6
:102A5000400607D5A806484602D50EF0EEF901E07B
:102A60000DF0AEFD48460DF064FE684601F0CAF96F
:102A7000BDE8FC872DE9F34F85B000270C46B8462A
:102A8000059801F067F90090C06D012185680598EF
:102A90002A68904782462A68032105989047049047
:102AA0002A6802210598904703902A68002105981A
:102AB0009047064600980EF03BFB834600980EF0C8
:102AC0003EFB8146009890F83210890601D5B0F996
:102AD000588000F036F805460098C06E10B10DF031
:102AE00086FB074625806780A4F804A0049AABEB18
:102AF000020006EB0802401E2A4420813A44E2808C
:102B0000039BA9EB0302521E6281A4F80CA0208251
:102B10007019E681401E6082684601F073F9B4F9CD
:102B20000C000190B4F91000029002AA01A90598C6
:102B300000F03AF80198A0810298208207B0BDE821
:102B4000F08F10B50146002091F83220920607D58B
:102B5000B1F95400002803D1486B02F04FFA801CF1
:102B600010BD70B58AB00C46054601F0F3F8099027
:102B7000C06D866809A801F045F9009534B1012CB3
:102B800006D0022C0BD0032C04D10AE0182000E060
:102B9000162001907168684688470AB070BD1520FC
:102BA000F7E71720F5E700002DE9FC4117468846B6
:102BB000044601F0CFF80090C16D056868468E6844
:102BC00001F020F932680021204690470646204651
:102BD0000DF0FCF927E000BF01F0BCF80190B0F95E
:102BE00000102AB2B0F90430891A9A1AB0F90230EA
:102BF000A3EB2543B34210D190F82800000605D579
:102C00003868884209DB491E396006E0D8F80000C0
:102C1000904202DC521CC8F8002001A801F0F2F832
:102C200020460DF06BFA0400D6D1BDE8FC812DE9F9
:102C3000FF4F83B00E460746DDF8409001F08AF85A
:102C40000190C16D8D68FFF77CFF044601A801F07B
:102C5000D9F82A6801213846904783462A6803211B
:102C60003846904782462A680021384690470546F4
:102C7000B44207D105998B4504D106998A4501D103
:102C80004D4541D0A41B0026B04638460DF09EF9B4
:102C900038E001F05FF80090806A010601D58005F8
:102CA00002E0810528D50006002825DB24B1224654
:102CB000114638460DF02BFE009890F828000006CB
:102CC0000AD50698A5EB0902A0EB0A0004FB160141
:102CD0003846761C0DF0DDFD0098008D80050BD583
:102CE0000599A5EB0902ABEB010004FB080108F113
:102CF000010838460DF0CDFD684601F083F83846EE
:102D00000DF0FCF90700C4D107B0BDE8F08F70B535
:102D100086B0064601F01EF80590D0E91A4505A8D0
:102D200001F070F854EA050026D069463046FFF7F6
:102D3000A1FEACB1BDF90620BDF9041020460DF08E
:102D40007DFDBDF90A00BDF90610421ABDF9080063
:102D5000BDF90410521C411A2046491C0DF0F3FF26
:102D6000002D09D0BDF90600BDF90210421ABDF9C7
:102D7000041028460DF062FD06B070BD2DE9F04349
:102D80000446406889B005460DF0BFF9814600F061
:102D9000E1FF0290D0F84880D0F88070466E02A81B
:102DA00001F030F82068172853D008DC0E283AD0FC
:102DB0000F2811D014284CD015283DD149E01E28E9
:102DC0001ED01F282AD0222840D0312834D10020FC
:102DD000E06009B0BDE8F0836FF07041404688457F
:102DE00003D006F00BFE01F099FA002EF1D0D4E9E1
:102DF00002122068CDE90405CDE9061204A81FE0FF
:102E0000E0680028E5D02FB1AF4203D038460DF07E
:102E1000EBFEDEE728460DF035FFDAE721464846AF
:102E20000CF0F0FAD5E7E0684168002904DD00689D
:102E30000928EFD00A2805D05EB12046C4F80490D6
:102E4000B047C6E728460DF025FFC2E7C4F80C805E
:102E5000BFE720460CF048FFBBE7000051B18200FD
:102E6000A2F1C042126842F001038200A2F1C04206
:102E7000136009E08200A2F1C0421268034B1A40BD
:102E80008300A3F1C0431A6070470000FEFF0F00EB
:102E9000D0E901121143C26811430269114342692A
:102EA000114382691143C2691143026A1143426AA4
:102EB0001143826A1143C26A1143026B11430268D3
:102EC0009200A2F1C0421160816808290BD101680B
:102ED0008900A1F1C041096841F040020168890000
:102EE000A1F1C0410A60416B0968426B526841EA36
:102EF0000211426B926841EA0221426B928941EAD7
:102F00000241426B128A41EA0251426B127D41EA50
:102F10000261426B926911430268521C9200A2F155
:102F2000C0421160C16AB1F5804F1BD1816B096845
:102F3000826B526841EA0211826B926841EA022177
:102F4000826B128A41EA0251826B127D41EA026170
:102F5000826B9269114302689200A2F1C042C2F8EA
:102F6000041107E06FF0704201688900A1F1C041CF
:102F7000C1F80421704700002DE9F0430446C568FC
:102F800087B090468946002002F09EFE064625B195
:102F9000287910B146F0020001E026F0020002F0AC
:102FA00093FE2069012558B1D4E902128DE826006C
:102FB000039563882288046841464846A0471EE07E
:102FC000124F134B214638681B68427CE0689847D3
:102FD00030B9E088012801D0002001E03868806B1A
:102FE000A288E388A1680095CDE90410CDE90232FA
:102FF0000195638822884146484605F019FF07B0CD
:103000003046BDE8F04302F05FBE0000040200203D
:10301000FC0100201CB50024019401AC009400F0D8
:10302000E7F81CBD2DE9FF4F83B0814606988A461C
:10303000A0EB0A08109E00200090A2EB090435685E
:10304000934654EA080018D02046FDF7D0FC074606
:103050004046FDF7CCFC87420BDA204644468046CA
:103060004846D14682465846DDF818B00690012001
:103070000090002C07DD204606E007B04846BDE87A
:10308000F04F00F03BB96042A0420AD04846D94612
:103090006442C8F1000883464FF0FF37DDF818A0FE
:1030A00000E001275148B8F1000F11D004EBD471B2
:1030B0004FEA610B01DACBF1000B4C480068807ECF
:1030C00088B3002F02DA30682044306000257BE0AE
:1030D00000990029016821D0897E11B1002780461E
:1030E00015E007B05A4649465046BDE8F04F06F095
:1030F00055B828466D1C17F05BFA38B9D8F80000AF
:1031000009EB0701406E4268504690477F1CA7427A
:10311000EFDD6D1E356007B0BDE8F08F8A7E1AB115
:103120000027804617E019E0486E5A46514603686A
:1031300007B04846BDE8F04F184728466D1C17F009
:1031400037FA38B9D8F8001009EB0700496E4A6819
:10315000514690477F1CA742EFDDDAE700250FE0DC
:1031600008FB05B090FBF4F101EB0A00009951B1A6
:103170001E4A09EB05011268526E526890476D1C99
:10318000A542EDDDC7E7194909EB05030968496E5A
:103190004A6801461846F1E708FB05B090FBF4F1D8
:1031A00001EB0A00019030683844306017F000FAF3
:1031B00048B9009890B10D4809EB05010068406ED0
:1031C0004268019890476D1CA542E5DD3068002FEC
:1031D00001DA20443060C01B30609CE7034909EBF2
:1031E00005000968496E4A680199EBE7040200206E
:1031F0002DE9FF470F4640491646804609680C985E
:103200001D460A7E012A1CD0A8EB0600791B50EA55
:1032100001031CD0A2F1010918F076FE00F58060D0
:10322000824604F05AFA00FB09F4504604F05AFAB8
:1032300000FB09F1002C0CDAC4F50070801240424A
:103240000AE00090324639464046FFF7EBFEBDE803
:10325000FF8704F50074A012002904DAC1F500719B
:1032600089124C4202E001F500718C12002804DD45
:10327000411C01EBD171491003E000EBD071491002
:10328000401E00EBD0704210002C04DD601C00EBEF
:10329000D070401003E004EBD4704010641E04EBC7
:1032A000D47308EB0104ADF800403C18ADF80240BF
:1032B000A8EB02045B10B21AADF80440ADF8082088
:1032C0003144FC1AEA1AADF80C102844ADF80A2073
:1032D000ADF80E000023ADF806401A4604216846FA
:1032E00000F07AF83946404612F00EFA2946304688
:1032F00012F00AFAABE7000004020020064A136845
:103300001A7E012A05D0521E02EBD272521000F032
:1033100005B85A6E52681047040200202DE9F05F8C
:103320000646884640F2C32002FB00F14FF47A7053
:1033300091FBF0F702FB02F102EBD27001EB600BA4
:103340001446B118234A301B7F1C1268526E136852
:103350000A4641469847012538E000BF05FB05F0C5
:1033600004FB040159451CDDBC4219DD194B06EB79
:10337000050AA6EB05091B68AAF1010208EB040186
:103380005B6E09F101001B689847124BAAF101021C
:10339000A8EB04011B6809F101005B6E1B689847EC
:1033A000641E0C4B3219301B1B68924608EB05015A
:1033B0005B6E81461B689847064B5246A8EB050199
:1033C0001B6848465B6E1B6898476D1CBD42C5DD97
:1033D000BDE8F09F040200202DE9FF4F43F6FF7483
:1033E0000F46664283B09B46814600210BE000BF3A
:1033F00009EB8100B0F90200A04200DA0446B042B5
:1034000000DD0646491CB942F2DB674800684069A6
:1034100000280DD0B0F906101A46A1EB0B01B142FD
:1034200000DA0E46B0F90200801AA04200DD044620
:10343000B4E0DFF878A100200546CAF8000088E073
:10344000781E854201DA6B1C00E0002309EB850C35
:1034500009EB8302BCF90200B2F90210A04244D188
:10346000A14215D139F92330059A39F9251003EB1A
:10347000020C4D4A05981268084404EB0B01526E89
:103480006045136801DA62462AE00246604627E09A
:103490002846A4464FF000087A1E0BE008B1401EF3
:1034A00000E0781E09EB8003B3F90230634504D1D4
:1034B00008F101089045F1DB2346A34248D01A1BCE
:1034C00039F92500A1EB040C059B92EA0C0F09D4F5
:1034D000354A184404EB0B011268526E1368024619
:1034E000984735E00EF0ACFA32E0A14230D001DB73
:1034F000A04203DDA0422BDBA14229DCE04688424A
:103500000ADC0346A04223DC0846A14220DBB8F9CE
:1035100000C0B2F9001008E00B46A14218DCA0423E
:1035200016DBB2F900C0B8F90010E21AA1EB0C01E9
:1035300051430029A0EB030202DD01EB620102E02E
:10354000A1EB6201491CC01A91FBF0F06044C9E78D
:103550006D1CBD42FFF674AF0598009004EB0B00A4
:10356000019000208046054613E01149B8F1000F94
:1035700031F915A009D0009901EB0A0208440A4963
:103580000968496E0B680199984788F00108504610
:103590006D1C064909688D42E7DB641CB4427FF765
:1035A00048AF07B0BDE8F08F040200207409002086
:1035B000788E002010B5002002F078FB6FF07F407D
:1035C00002F076FB012002F0B5FB002002F0BAFB0E
:1035D000002002F0C1FB002002F076FB04480068E6
:1035E00002F074FBBDE81040002002F07FBB000039
:1035F000000200202DE9F0410246002500260020AF
:1036000000230024002791F803C00CF00F0591F867
:1036100003C00CF0100CBCF1000F03D091F802C0F5
:103620004CEA050591F800C0BCF1000F31D01468D8
:1036300000202BE04FF0010C0CFA00F3B1F800C0B1
:103640000CEA03069E4220D183004FF00F0C0CFAC7
:1036500003F7BC4305FA03FC4CEA040491F803C0E9
:10366000BCF1280F06D14FF0010C0CFA00FCC2F897
:1036700014C00AE091F803C0BCF1480F05D14FF027
:10368000010C0CFA00FCC2F810C0401C0828D1D371
:103690001460B1F800C0BCF1FF0F34DD54680020A5
:1036A0002EE000F1080C4FF0010808FA0CF3B1F815
:1036B00000C00CEA03069E4221D183004FF00F0C9C
:1036C0000CFA03F7BC4305FA03FC4CEA040491F836
:1036D00003C0BCF1280F05D100F1080C08FA0CF862
:1036E000C2F8148091F803C0BCF1480F07D100F173
:1036F000080C4FF0010808FA0CF8C2F81080401CC2
:103700000828CED35460BDE8F081024600209368BB
:103710000B400BB1012000E0002070470AB10161AD
:1037200000E041617047000010B500200549487075
:103730006A22054940F2A26000F086F801200149A2
:10374000087010BD0C120020640000201CB501227E
:10375000694640F2217000F045F89DF8000000F045
:10376000010050B94FF0FF301C490860486000204C
:103770000872084602F02AF91CBD05220DF101016C
:1037800040F2227000F02EF89DF800001449887075
:103790009DF80100C8709DF803009DF8021000EB31
:1037A00001200F4988809DF805009DF8041000EB6A
:1037B00001200B49C8800846C088084908600848AD
:1037C000808840F2DF11081A04494860012008721D
:1037D000084602F0FBF800BFCEE70000C012002050
:1037E0000C1200202DE9F04105460E4617461CF04C
:1037F00007F8BA201BF0D6FF1CF030F828121BF097
:10380000D1FF1CF02BF8E8B21BF0CCFF1CF026F81F
:103810001BF0F6FFBB201BF0C5FF1CF01FF80024B7
:1038200006E01BF09BFF30551BF040FF601CC4B24C
:10383000781EA042F5DC1BF091FF30551BF076FF9F
:103840001BF0F8FFBDE8F0812DE9F04104460E467B
:1038500017461BF0D5FFBA201BF0A4FF1BF0FEFF9C
:1038600020121BF09FFF1BF0F9FFE0B21BF09AFF44
:103870001BF0F4FF002506E0705D1BF093FF1BF0CA
:10388000EDFF681CC5B2BD42F6DB1BF0D3FFBDE8FF
:10389000F08100002DE9F04FDFF828B191B04FF032
:1038A000FF35DBF80030B3F922100691DE69B3F979
:1038B00024A0F469A189814206D8E289824203D317
:1038C000471AD4F8008012E0D4E90181002970D0B1
:1038D0000A8882426DD84D8885426AD3801A82B2A6
:1038E000486800EB8200B0F90070B0F90250781C13
:1038F0005FD0307EA27C014600FB02F9207CCDE93E
:103900000710B3F92A60304606F0D6F8C0B20E9020
:10391000DBF8001007FB0980A37C8A6B0127CDE947
:103920000402CDE90273C869089AC17E807ECDE9A0
:103930000001DDE90603514605F07AFA681C18D04B
:1039400046F0020006F0B8F8DBF80000A37C05FBA7
:103950000981826BCDE90273CDE90412C069089A2E
:10396000C17E807ECDE90001DDE90603514605F008
:103970005FFADBF800005D46C069417E007E81424F
:1039800014D9022E12D086F0040006F095F82868AB
:10399000C069027EC37E857E02FB03A1437E089A36
:1039A0000698534402FB050205F050FC0E9806F001
:1039B00083F8DBF80000627C418C1144418411B033
:1039C000BDE8F08F0402002004480068C069C069A7
:1039D00009B1027C0A60407C7047000004020020AC
:1039E000022008807047C06982898A4202D8C28951
:1039F0008A4210D2806880B102888A420DD84388FA
:103A00008B420AD3406800EB8100A0EB8200B0F942
:103A10000000002801DB01207047002070470000F3
:103A20002DE9F0432F4C034687B020681946B0F9C2
:103A30002A80C069C06900F082F800284ED0416831
:103A40000088181A01EBC0054046AE7806F034F83D
:103A5000814620686A680123816BCDE90236CDE991
:103A60000421C169CB7E8A7ECDE900230B7EB0F9AB
:103A700024102A78B0F9220005F0DAF92068C0692C
:103A8000477E067EB7421DD9C07E47434643B8F104
:103A9000020F17D001F0FFF9804601F0DFF902F0C4
:103AA00007F921682A78CB69B1F92200B1F924100D
:103AB000DB7E02FB0302CB19314405F0C7FB404615
:103AC00002F0F6F8484605F0F7FF20686A78C36907
:103AD000B0F922109B7E02FB0311418407B0BDE8C0
:103AE000F08300000402002030B50E4C05460B4662
:103AF00020682946C069C06900F021F8002810D06C
:103B00004168008824682A1A0120E46900EBC20099
:103B1000085CA47E6043002B03D011F8321061438F
:103B2000196030BD0402002001200880704700B5F4
:103B3000C06900F004F8002800D0012000BD06E0B4
:103B400002888A4202D842888A4202D280680028CB
:103B5000F6D17047F8B505460C000DD0084600F0C8
:103B600015F8060010D000F0F5F8224600902DB1AF
:103B70002946FCF72AFB04E00020F8BD002103F0F1
:103B80002EFD684600F03EF93046F8BD002801D011
:103B90000EF0E6B8704738B50546FFF7F7FF0400AA
:103BA00009D000F0D7F82A460021009003F017FD55
:103BB000684600F027F9204638BD0000024A106030
:103BC00021F0030050607047D48C002010B500280D
:103BD00014D004460A48406B10F8341000290DD068
:103BE00002290BD2042101EBC401415848680DF0B1
:103BF00043FF2046BDE8104016F0A8BA10BD0000F3
:103C0000148C0020002805D0034AD16B016001B15B
:103C10004860D06370470000148C002010B5044643
:103C20000068FFF7D3FF0020206010BD70B50D467F
:103C30000646002405E000BF06EB8400FFF7EEFF18
:103C4000641CAC42F8DB70BD2DE9F041044614F071
:103C50009DFA2848E41C24F00305016C2D1DA9429F
:103C600000D90D46C46B13E054F8042CAA420ED1BF
:103C700084B1216809B162684A60616809B122684B
:103C80000A60C26BA24231D12168C1632EE0246870
:103C9000002CE9D18046816BC0680F1857F8040CDE
:103CA0003E1A306838B1002016F004FB57F8040CB7
:103CB0003E1A3068D0B97068A84217DB3044441B04
:103CC0003046241D16F0AEFAD8F80C10491BC8F87F
:103CD0000C10D8F814102944C8F814107068401B50
:103CE00002D031460DF0C8FE44F8045C2046BDE821
:103CF000F0810000148C002010B5002414F046FA66
:103D00000C490F2001EBC002526C1AB101EBC0004C
:103D1000406C08E0401EF5D508E04168A14200D99A
:103D20000C46806810B180680028F6D1A4F10C0020
:103D300010BD0000148C0020002138B10449042279
:103D400002EBC000496B085841680C3908467047BF
:103D5000148C00200549CA69521CCA61496B01EBE9
:103D6000C0010A78521C0A7000F064B8148C00205C
:103D70007CB506460C460846FFF708FF05001CD038
:103D8000DEB13046FFF7D8FFA04200DA04462846ED
:103D9000FFF7E0FF00903046FFF7DCFF014601909F
:103DA00022460098FCF711FA684600F02BF801A8AB
:103DB00000F028F83046FFF709FF28467CBD0000D8
:103DC00010B5FFF799FF64220649B0F5800F04D9BA
:103DD00090FBF2F0096A484310BD096A4143B1FB08
:103DE000F2F010BD148C00200549102805D94A684E
:103DF000B0EB520F02D3500800E0102088607047EB
:103E0000D48C00200A4902684B6B52F8082C03EB53
:103E1000C2021378022B03D3CB690BB15B1ECB61BB
:103E20001178491E1170002101600846704700009A
:103E3000148C0020002806D00349042202EBC000A5
:103E4000496B085808307047148C00202DE9FC415C
:103E50004FF000060B465FEA000834462BD032B123
:103E600011461846FFF776FE060000D101244046B1
:103E7000FFF770FF0090078845686846FFF7C2FFAC
:103E8000CCB9B9002846091DFFF772FF050015D00F
:103E9000FFF760FF019040F8276001A8FFF7B2FF2D
:103EA0004046FFF757FF009045600188491C01809C
:103EB0006846FFF7A7FF2046BDE8FC813046FFF7C4
:103EC00085FE0124F7E70820FFF765BE7CB50500F5
:103ED00023D0FFF73FFF00904068C0B1FFF73AFFE3
:103EE0000024019005E0019800EB8400FFF796FEA6
:103EF000641C00980088A042F5DC01A8FFF782FF4F
:103F00000098001DFFF78AFE00990020088068468F
:103F1000FFF778FF2846FFF759FE7CBD1CB50C461D
:103F2000FFF718FF00900188A1421CD94068D0B16A
:103F3000FFF710FF019000EB8400FFF76FFE009980
:103F40000888401E80B20880401E019906E000BF2C
:103F500001EB8402526841F82420641C8442F7DD9E
:103F600001A8FFF74FFF6846FFF74CFF1CBD38B5AF
:103F7000002430B1FFF7EEFE009004886846FFF79A
:103F800041FF204638BD38B50D46002448B1FFF743
:103F9000E1FE2946009000F0B4F804466846FFF7B9
:103FA00031FF204638BD38B50D46002448B1FFF733
:103FB000D1FE2946009000F0B6F804466846FFF7A7
:103FC00021FF204638BD2DE9FE430C465FEA00087C
:103FD0003DD0FFF7BFFE0090068847686846FFF7B0
:103FE00011FFB44233D2B000001DFFF7D4FD05002D
:103FF0002DD0FFF7AFFE01903846FFF7ABFE01462C
:104000000290A2000198FCF7E0F8301B82000298B1
:1040100000EB8401019800EB8400001DFCF7D5F84B
:1040200001A8FFF7EFFE02A8FFF7ECFE3846FFF706
:10403000CDFD4046FFF78EFE009045600188491C8B
:1040400001806846FFF7DEFE0120BDE8FE83002008
:10405000FBE72DE9F04115460E4607460024FFF721
:10406000B2FF30B12B4600223146384600F004F84A
:1040700004462046BDE8F0812DE9FE43984691466E
:104080000D460024D0B3FFF765FE0190078846680F
:1040900001A8FFF7B7FEBD4230D27EB33046FFF72E
:1040A00059FE009050F825406846FFF7ABFE24B15A
:1040B0002046FFF741FE404511D04046FFF76BFD1B
:1040C00004000CD03046FFF745FE00EB850500905C
:1040D0002846FFF7A3FD68462C60FFF793FEB9F171
:1040E000000F0BD054B12046FFF734FE424649463C
:1040F0000290FCF76AF802A8FFF784FE2046BDE8AC
:10410000FE8338B50D4601880024A94209D94068CC
:1041100038B1FFF71FFE009050F825406846FFF7C2
:1041200071FE204638BD10B50024FFF7EAFF10B13C
:10413000FFF710FE0446204610BD000010B51368BE
:1041400008290DD85C18146000222270054A04E08A
:1041500000F00F040009145D5C54491EC9B2F7D287
:1041600010BD00004CE804082DE9FC5F04468946B8
:10417000084600F097FE2B4E09EB8907824656F859
:104180002700019028484FF00108016841B92649ED
:10419000C0F80080091D25480860084603F06EF944
:1041A000204A09EB89015FEA0A0002EB81051BD076
:1041B00001F02EFD83464FF07F4001F077FD00F0C7
:1041C000ADF800221146206800F08CFB2068428880
:1041D0000188504601F086FD46F8274085F80580A5
:1041E000584601F015FD17E046F8274085F8058090
:1041F0002869464618B101F061FC0020286174B1BD
:104200000096E868A1684B46421AA8686168411A9E
:10421000206801F095FC2861484616F0F7FD0198EA
:10422000BDE8FC9F508D002048020020058C01084D
:1042300070B506460D461446104600F033FE0300E6
:10424000164804EB84010AD050F8210041688068C8
:10425000711A2A1ABDE87040184601F041BD00EB02
:104260008104A268B24201D0012200E00022E3688A
:10427000AB4201D0012300E000231A430CD0236994
:1042800043B150F82100816840686A1A311A184613
:1042900001F032FCC4E9026570BD0000508D0020C1
:1042A00002480068407C00F003B8000004020020CF
:1042B00030B4094900EB800201EB820401236371F1
:1042C00051F8221011B130BC16F0A0BD014630BC2F
:1042D0000248FFF749BF0000508D002030CC040891
:1042E00010B5C2B2CBB2D21A00D5524293B25B43E0
:1042F000C0F30722C1F30724121B00D55242000C61
:1043000092B2A0EB114002FB023200B2002801DAA7
:10431000404200B280B200FB002010BD10B5002169
:10432000084600F07FFE43F6FF725042BDE81040A1
:1043300013460146AFF300802DE9FC4107461C46B9
:1043400015460E46042005F0B7FB80461148C068AC
:10435000C16C006D0F4406440D440444ADF8007078
:10436000ADF80450ADF80260ADF8064068460CF0B8
:10437000EDFE07E023462A463146384604F066FF44
:104380000CF098FE0028F5D1404605F095FBBDE8FD
:10439000FC810000F8010020B0F90630B0F90420DB
:1043A000B0F90210B0F90000FFF7C6BF2DE9F843DD
:1043B0001C00DDE9089816460F46054602D10BF0B1
:1043C000E7FD044600962E6843464A4621462846A5
:1043D000B047060035D00BF0CFFD8146698A3046E4
:1043E0000BF0A0F830460CF028FD48460CF025FDF7
:1043F0004FF000080CE000BFCDF8008055F81CCF4E
:1044000000231A4649462846E047E0B10CF015FD66
:104410007F1E002FF0DC1D2148460CF02AFB601C9B
:104420000ED00BF0E5FD30B1FFF704FD8469B44216
:1044300001D02000F8D1B44202D030460CF022FC6A
:104440003046BDE8F88330460BF082FC0020F8E7E8
:104450002DE9F0411C4616460D460746022B02DBAD
:104460000020BDE8F0811C20FFF7EEFB0028F8D00B
:104470000DB105610AE0094A52F8241009B905E0B6
:1044800011460A68002AFBD10969016184618682AC
:10449000002101604160C0E90217E2E71C02002030
:1044A00070B51D46FFF7D4FF040009D000F00EF8E8
:1044B000E068006820B90348006800EB8500846567
:1044C000204670BD04020020FFF79CBB70B590B37E
:1044D0008269022A30DA1E4C54F8221019B944F8C5
:1044E000220032E019464B68002BFBD106E0CB6876
:1044F000C5681B682D68AB4203DD09680029F6D149
:104500001AE0C1B1CB68C6681B683668B3420CD1EB
:10451000838A012B05D008E01946DB681B68AB4293
:1045200003DB0B68002BF7D129B14B6833B118605E
:104530004A68426004E0FFE7012070BD44F82200B1
:104540004860884200D100210160002070BD000059
:104550001C02002016F03ABF022801DB0020704741
:10456000054A52F8200004E0C26812688A42F6D078
:1045700000680028F8D170471C020020022801DBE7
:1045800000207047054951F8200004E0C16809681F
:104590000029F6D000680028F8D170471C020020DE
:1045A000F8B516460F4605004FF000040FD00C205A
:1045B000FFF7F1FA04000AD0FFF7CCFB05490090A1
:1045C000C0E90015078146816846FFF71BFC2046BD
:1045D000F8BD0000C0DD04082DE9F8431D4616466D
:1045E000884604000CD0FFF7B5FB00900068076810
:1045F0006846FFF707FC2B46324641462046B8473F
:10460000BDE8F88338B504004FF000000AD020461A
:10461000FFF7A0FB0090006845686846FFF7F2FBD3
:104620002046A84738BD38B504004FF000000AD036
:104630002046FFF78FFB0090006885686846FFF70B
:10464000E1FB2046A84738BD70B5044601F022FEC4
:10465000051908E000F040FB052C01DD052000E015
:10466000204601F009FE01F015FE2C1A002CF1DCA9
:1046700070BD00002DE9FC4706005BD000F02AFC6D
:104680003B4C81462068B0F9228000F09BFC2168F9
:1046900007468A8CD01B888441E000BF47F6FF7133
:1046A000304602F057FD82460146304602F028FDB2
:1046B0002168054691F82C0000F0030001283FD046
:1046C000022839D000204A8C101A4884ADF8000026
:1046D0006A1E1044ADF80400888CADF80200A9F100
:1046E00001010844ADF806006A465146304601F023
:1046F000D9FF2168BDF8020088845146304601F098
:1047000093FC064430780A281CD00D281AD0BDF836
:104710000000216828444884307818B1761C30782D
:104720000028BBD12068818C39448184818D21F09F
:1047300003018185BDE8FC8705EBD5704010C2E719
:104740002846C0E7206890F82C1001F003010129E9
:104750000BD0022909D0018C418431780A29DBD1A0
:10476000828C02EB09018184D6E7A0F82280F4E76D
:1047700004020020024B1B6859849A84FFF77ABF19
:104780000402002047F6FF73AFF300802DE9FC41DF
:104790001F46904606000D464FF0000416D065B146
:1047A00008460CF0EFFA040007D002462946684696
:1047B00002F03DFD68460CF0E5FA3B4642462946CC
:1047C000304601F0C7FF20460CF0DCFABDE8FC8162
:1047D0002DE9FF4F87B090468946070079D00C68D5
:1047E000D9F8045021B228B2401A401C029000F0BF
:1047F00071FB064618F00C0F1ED038460A9A029933
:1048000001F01BFD08F00C01042904D0082902D096
:104810000C2911D104E0291400FB1610401C09E0FA
:104820002114C1EB254200FB1620401C00EBD07088
:1048300001EB600060F31F4448460CF0A3FA5FEA06
:10484000000B09D00246494604A8CDE9044502F010
:10485000EEFC04A80CF096FAA6F1010A38460A9A72
:10486000029902F08BFE03900AEB244060F31F458F
:10487000CDE900453846039902F042FC18F00301E7
:104880000ED0012928D002290ED1B9F90420B9F996
:104890000010521A101A00EBD07001EB600001E01A
:1048A000B9F80000ADF800006A463846039901F0F7
:1048B000F9FE38460A9A029902F056FE074406EBC2
:1048C000244060F31F4438780028C7D158460CF0C4
:1048D00059FA0BB0BDE8F08FB9F80410081A401C63
:1048E000E0E700007CB5064610480068C36C006D28
:1048F0005D1884183188681E0844ADF80400ADF8CE
:1049000000507188601E0844ADF80600ADF8024002
:1049100068460CF01BFC06E0224629463046FEF7AE
:104920002BFB0CF0C7FB0028F6D17CBD0402002055
:104930001CB50A460146684602F092FD2448BDF8BF
:104940000010006830F84C2F1144ADF80010BDF88D
:10495000021082881144ADF80210BDF804100288DC
:104960001144ADF80410BDF8061080880844ADF875
:10497000060068460CF0EAFB27E000BFBDF90040E6
:104980000BE000BFBDF90210204604F0A7FBBDF903
:104990000610204604F0A2FBA41CBDF90400A042AE
:1049A000F0DABDF902400AE0BDF90000214604F04A
:1049B00095FBBDF90400214604F090FBA41CBDF951
:1049C0000600A042F0DA0CF075FB0028D6D11CBD21
:1049D000040200202DE9F04F0C46164987B00D68FF
:1049E000DDE91098E96C0F18286D8D180619C418A8
:1049F000ADF81070ADF81450ADF81260ADF8164077
:104A000004A80CF0A3FB002811D0DFF82CB04FF065
:104A1000000ACDE90098CDE902BA2B462246394674
:104A2000304610F0E9FB0CF045FB0028F1D107B04F
:104A3000BDE8F08F040200209D9100082DE9F04FA1
:104A4000164C87B02568DDE91098EC6C2718286DA6
:104A5000A5184618C418ADF81070ADF81450ADF88C
:104A60001260ADF8164004A80CF070FB002811D0BD
:104A7000DFF82CB04FF0010ACDE90098CDE902BA79
:104A800023462A463146384610F0B6FB0CF012FB9E
:104A90000028F1D107B0BDE8F08F0000040200202B
:104AA000859000082DE9FC41104F04463B68D86C06
:104AB0004518196DADF800500E198418ADF8044072
:104AC000ADF80260ADF8066068460CF03FFB08E008
:104AD000386822463146406E0368284698470CF0F5
:104AE000E9FA0028F4D1BDE8FC81000004020020AE
:104AF0002DE9F0410B4C2568EC6C2718286DA518A2
:104B00004618C41800200CF021FB07E023462A4673
:104B100031463846FEF77EFA0CF0CCFA0028F5D183
:104B2000BDE8F081040200207CB50E4D2A68D36CEC
:104B30001E18106DADF804604418ADF80060ADF8B3
:104B40000640ADF8024068460CF000FB07E028681C
:104B50002146406E4268304690470CF0ABFA002880
:104B6000F5D17CBD040200202DE9FC411C4C2468D9
:104B7000E66C94F818C03718206DACF1010C45189C
:104B8000C418A7EB0C001644ADF8000006EB0C00AF
:104B9000ADF80400A5EB0C00ADF8020004EB0C002E
:104BA000ADF8060068460CF0D1FA15E03246294609
:104BB000384604F067FA32462146384604F062FA75
:104BC000621E691C384604F0E9FA621E691C304610
:104BD00004F0E4FA0CF06EFA0028E7D1BDE8FC819D
:104BE0000402002070B50E468EB0044601461546FC
:104BF00006A802F012FCBDF81A30642B0CD100207C
:104C000000900AAB01AA214606A801F02DFD2A4614
:104C1000314601A8FFF766FE0EB070BD7CB50E4BA5
:104C20001B68DC6C2618186DADF8006045188418F8
:104C3000ADF80460ADF80250ADF8064068460CF0DF
:104C400085FA06E022462946304604F0A7FA0CF021
:104C500031FA0028F6D17CBD0402002070B50C4664
:104C6000054600F029F910B10121C0E900142846D9
:104C7000BDE870400CF0A0B910B5044601F008FB87
:104C800004490968002903D02046BDE810400847C0
:104C900010BD0000FC07002030B59DB00D46044655
:104CA000CDF870D06F220021684602F098FC642293
:104CB000214668460DF0C8FB6846FBF7B8FA1C9918
:104CC0001CAA08441C900821284601F0EAFA68460C
:104CD000FFF7D2FF1DB030BD10B5002400E0012465
:104CE00000F004F80028FAD1204610BD094810B59C
:104CF0000068002410B1804700B101240BF0CEF809
:104D000000B101240448006810B1804700B10124BB
:104D1000204610BD280200202402002070B516464F
:104D2000094A1268D36C1C18106D451800200CF04D
:104D30000DFA06E0324629462046FEF7EFFA0CF05F
:104D4000B9F90028F6D170BD040200202DE9FC411C
:104D50000F4C2568EC6C2718286DA5184618C41848
:104D6000ADF80070ADF80450ADF80260ADF8064043
:104D700068460CF0EBF907E023462A4631463846F0
:104D800004F064FA0CF096F90028F5D1BDE8FC8136
:104D900004020020B0F90630B0F90420B0F9021086
:104DA000B0F90000FFF7D2BF08B50B46002805D0C8
:104DB000009281888268C08800F001F808BD10B5B3
:104DC0000828029C30D008DC04FB01F401280AD03A
:104DD000022813D0042804D11CE0102828D0202851
:104DE0002CD0002010BD04EBD30003F00701105CB1
:104DF000C1F10701C84000F0010010BD04EB9300B1
:104E00000621105C01EA4301C1F10601C84000F02F
:104E1000030010BD04EB5300D907105C02D000F072
:104E20000F0010BD000910BD04FB0130105C10BD67
:104E3000481004FB003032F8100010BD881004FB4D
:104E4000003052F8200010BD034951F82000C1681D
:104E50008A6A0821104700001C02002010B504F0E7
:104E60005BFABDE8104004F0D7BB000002490968B6
:104E7000C9694A680021104704020020024A1268EA
:104E8000D26952681047000004020020002801D0B7
:104E90000BF062B8704710B504F046FABDE8104058
:104EA00004F0BABB0021022802D2024951F82010B6
:104EB00008467047000800201FB5002101910291AB
:104EC00003912A21009169460BF0CEFD039804B0AE
:104ED00010BD000002480068C069407E70470000B5
:104EE0000402002010B907480068C06990F820202B
:104EF0008A7090F822200A7190F82120CA70826886
:104F0000104700000402002002F0F0B870B514460B
:104F10000D4604F0C3FA002802D00020286020606B
:104F200070BD02F041B910B5044602F02FF90146F8
:104F30002046BDE8104002F0E3B800002DE9F74339
:104F400006464FF00008019844464746154618B3F8
:104F500002F0CCF8804601980078D8B91CE02946C8
:104F60007F1C019802F0F6F881460146A5EB090581
:104F7000019802F0C5F8A04200DC204604464946EC
:104F8000019801F051F801990844019001A802F03C
:104F900025F908B9002DE2D10848641E0168498C42
:104FA000318000682144B0F92400708008FB0700BC
:104FB000B180401EF080BDE8FE83000004020020A6
:104FC00001F068B90A490020096891F82C2002F024
:104FD0000C02042A07D0082A01D00C2A02D1C86981
:104FE000007E40087047C869007E401E7047000080
:104FF00004020020417EC07E48437047017EC07E8F
:1050000048437047024951F8200000690068704722
:105010001C020020024951F82000006940687047D6
:105020001C02002070B50D4612F0E8FE044628462A
:1050300012F0ECFE204370BD124810B5016821F05B
:105040000101016010480121816010490160006880
:105050000F49884200D0FEE701F038FA0D492E20B2
:10506000087001F01DF90C4813F042F81AF0E4F949
:1050700004460021084600F041FE0BF0B5FA204638
:1050800010BD0000002000E000300240C2A507F47F
:10509000CDB5E8B5F8010020E08C00202DE9FC41F9
:1050A00007461C4615460E46012000F00DFE8046C0
:1050B00011480068C16C006D0F4406440D4404445F
:1050C000ADF80070ADF80450ADF80260ADF80640E0
:1050D00068460CF03BF807E023462A46314638463E
:1050E00004F0B4F80BF0E6FF0028F5D1404600F0DC
:1050F000EBFDBDE8FC810000040200201CB520B9D6
:105100000C480068006E002812D0FEF723FE0090C5
:1051100044696846FEF776FE002C09D02046FEF76B
:1051200019FE019081688968884701A8FEF76AFE28
:105130001CBD00000402002001490A4600F002B82C
:1051400001F0FFFF2DE9F04387B015460C465FEAFA
:10515000000842D0002000F0B7FD814620480068DA
:10516000066E4046FEF7F6FD00900068806900F08C
:105170004FFD074640F6FF70C44204D10098B0F9D5
:105180000440B0F906500098611E0289ADF8044051
:105190001144ADF808104189681E0844ADF8065066
:1051A000ADF80A000AF002FC6846FEF72BFE01A8E3
:1051B0000BF0CCFF06E02A462146404600F07EFB7D
:1051C0000BF078FF0028F6D1384600F021FD30467C
:1051D00000F090F9484600F077FD07B0BDE8F08395
:1051E000040200202DE9FE4F834619488A461949DA
:1051F00000680C9E9846407C9146002751F820405C
:10520000E1680968042903D02468002CF8D100E083
:1052100014B9FFF7B3F904460121E068C26A2046D9
:105220009047050011D02469A0688047401C02D136
:10523000094C46F001060096CDE9015443464A4622
:105240005146584600F0DAF907463846BDE8FE8F69
:10525000040200201C02002024DF040838B50400EA
:1052600018D00D480068006EA04201D100F0C6FCC5
:105270002046FEF76FFD0090406908B100F0CBFFBB
:1052800000980068FFF720F96846FEF7BBFD20464E
:10529000FEF79CFC38BD0000040200202DE9FF4F02
:1052A0000746464883B099460068DDF840B08A4614
:1052B000447C434800570128204606DD04F074F979
:1052C0008046204604F07CF905E004F055F980465C
:1052D000204604F057F9044617B302A901A8FFF7C6
:1052E00020FEB7F90060002E00DA0026B7F9025060
:1052F000002D00DA00250199B7F904004144491E48
:1053000013F0F5F9804602980119B7F90600491E15
:1053100013F0EDF9A8EB0602441B521C641C02E0DA
:10532000002635464246B9F1000F01D1C4F100090B
:10533000002A01DD002C03DC002007B0BDE8F08F5F
:105340004B4629463046CDF800B0FFF74BFF5FEAE9
:10535000000909D000F094F88046484600F0CAF8E9
:105360000027DFF860B01FE051460598884701200C
:10537000E3E7E11B414502DA484600F0A5F83FB1FA
:10538000EA193146484600F0D7F84846FFF7B6FE1E
:10539000514605988847DBF8001009B1002088477E
:1053A0004846FFF7C9FE4744A742E2DB4846FFF7FD
:1053B00055FF002000F09EF8BEE700000402002028
:1053C0003C0200204808002038B5002460B1FEF7F8
:1053D000C1FC0090006800698068804704F058FDB7
:1053E00004466846FEF70EFD204638BD38B5002855
:1053F00008D0FEF7AFFC00F1180400906846FEF7F5
:1054000001FD204638BD000038B5002418B9074812
:105410000068006E38B1FEF79DFC0090B0F90440C2
:105420006846FEF7EFFC204638BD0000040200206D
:1054300038B5002418B907480068006E38B1FEF787
:1054400089FC0090B0F908406846FEF7DBFC204676
:1054500038BD00000402002038B5002418B9074800
:105460000068006E38B1FEF775FC0090B0F9064098
:105470006846FEF7C7FC204638BD00000402002045
:1054800038B5002418B907480068006E38B1FEF737
:1054900061FC0090B0F90A406846FEF7B3FC204674
:1054A00038BD00000402002070B5054600242846DF
:1054B0000DF0E4F8641C18B1BDE8704000F068B865
:1054C000052CF4DB70BD000038B50C4620B9084847
:1054D0000068006E00280AD0FEF73CFC0090B0F98E
:1054E0000A10A14200DD44816846FEF78BFC38BDFE
:1054F00004020020F8B50F4E05003068046E16D087
:105500000CB100F07BFB0AF0E5FB2846FEF722FC1D
:10551000009031680D660068FEF7D8FF6846FEF718
:1055200071FC04F051FB04F093FA2046F8BD00F042
:1055300065FBFAE7040200207CB515460C4620B94D
:1055400012480068006E00281FD0FEF703FC2DB241
:105550000090C58024B2848004F07AFA00984069F3
:1055600080B1FEF7F7FB009A0190B2F90810818034
:10557000B2F90A20C28011B10AB10480458001A8A5
:10558000FEF740FC6846FEF73DFC7CBD04020020AF
:1055900001490A4600F002B801F0FFFF7FB5154649
:1055A0000C46060028D0FEF7D5FB40F6FF710190AF
:1055B000CC4203D1B0F90440B0F906500289611E13
:1055C0001144ADF80840ADF80C104189681E08443C
:1055D000ADF80E00ADF80A5001A8FEF713FC02A8C2
:1055E0000BF0B4FD06E02A462146304600F04EF9A5
:1055F0000BF060FD0028F6D17FBD00002DE9FF4FC4
:10560000DFF8E8B083B01C46DBF80010DDE910607D
:1056100092464FF000084B7C42461299FEF718FF65
:10562000050060D028698068804704F031FC81461D
:105630000AFB09F1C91DCF08FEF7C2FBF10705D12E
:10564000C11700EB9170801000EB4000002C09DCCA
:105650001FB11838B0FBF7F000E000206442A04210
:1056600000DC0446F00707D10090DDE90301234682
:10567000524600F059FD8046002C03DC2846FEF718
:1056800023FF30E004FB07F01830F10702D0FEF7EB
:105690007DFA01E0FEF77FFA06001CD0FEF75AFB08
:1056A00001900560039981800499C180A0F808A049
:1056B0004481C0F81480C0E9037901A8FEF7A2FB79
:1056C0001298AE602861DBF80000407CA86130468B
:1056D00007B0BDE8F08F2846FEF7F6FE5FEA080047
:1056E00001D0FEF773FA0020F2E700000402002068
:1056F0000149086070470000480800202DE9F74F75
:105700008EB0144689460E98FEF724FB0990B0F936
:1057100008B0B0F90A600068006940680C9009A8F8
:10572000FEF770FB564D574F2868407C57F8200015
:10573000C1688A6A082190470790182801D3202061
:1057400007902868407C57F820000069069003C83D
:105750000B904D48814201D0012000E000200A90CA
:10576000002000F0ADFD00287DD1286809EB0B0179
:10577000B0F90C20891A491E002902DDABEB0105A6
:1057800000E05D46B0F90810494505DDA1EB0901CF
:1057900089446D1A089101E000210891002D6BDD0C
:1057A000B0F90E20A119891A491E002902DDA6EBC5
:1057B000010800E0B046B0F90A00A04204DD061B73
:1057C0003444A8EB060800E00026B8F1000F53DDD2
:1057D000089801900DA95F46DDF830A00E98009161
:1057E000FFF704FE774300EB870101982B4601EB9E
:1057F000800200994846CDE900A1214601F05AF8FF
:105800000090002838D00A98E8B1DDE90632294630
:10581000009800F055FEB0B90698009FDA46D0F81F
:1058200010C0BCF1000F05D004235A463946384653
:10583000E04708E00B993868884701C7AAF10100E2
:105840005FEA000AF6D100990020079ACDE903012A
:10585000059001200090CDE9010221460346641C19
:105860002A46484600E007E003F0E2FAA8F101000A
:10587000761C5FEA0008ABD111B0BDE8F08F0000E4
:10588000040200201C02002063960008F8B51546AB
:105890000E460746FEF75EFA009000681621C068C3
:1058A000426A0020904704466846FEF7ABFA002C97
:1058B00003D02A4631463846A047F8BDF8B515460C
:1058C0000E460746FEF746FA009044696846FEF722
:1058D00099FA3846FFF778FD0346082800DD2CB119
:1058E0002A463146384615F05FFEF8BD2A46314655
:1058F000384615F0F9FFF8BD10B5002821D009B3DE
:105900000AB3B1F90040B2F900309C4200DA2346F4
:105910000380B1F90240B2F902309C4200DA23461A
:105920004380B1F90440B2F904309C4200DD2346C3
:105930008380B1F90610B2F90620914200DC1146CD
:10594000C18010BD11460A6802604968416010BDFF
:1059500000280BD003880B4403808388194481807E
:10596000418811444180C1881144C18070470000C2
:1059700070B50E4D0446D5E90001884209D10C49A5
:10598000884201D13C3000E00C3807C884E80700A9
:1059900006E090E80E0084E80E0012F04DFA286050
:1059A000207A002800D0012070BD00006402002091
:1059B000D08D00200448D0E90010814201D101209F
:1059C000704700207047000064020020054A10B5AF
:1059D0000349116015F06CFBBDE8104000F0C6B93A
:1059E000110201082C02002070B5094C0020D4E9F6
:1059F00000218A420AD0D2E90056104612F026FA57
:105A00002060314628460AF04FFF012070BD00009B
:105A1000540200202DE9FC41154DDDE908742D6884
:105A2000B5F90860864200DD3046B5F90C60964253
:105A300000DA3246824219DBB5F90A608E4200DD97
:105A40003146B5F90E509D4200DA2B468B420DDBF4
:105A500000E02C46E5682D6825B1042D02D02568AC
:105A6000002DF6D1CDE9007403F0C8FEBDE8FC813D
:105A700004020020B0F90220B1F906309A4213DC8A
:105A8000B1F90220B0F906309A420DDCB0F90020DD
:105A9000B1F904309A4207DCB1F90010B0F9040002
:105AA000814201DC01207047002070470146024816
:105AB00070220068FAF789BB0402002038B50400A0
:105AC00019D015F0D9FB204615F04CFC2046FEF706
:105AD00041F900900068FEF795F80098C068FEF75D
